:020000040000FA
:100000000C94F3020C941B030C941B030C941B0321
:100010000C941B030C941B030C941B030C941B03E8
:100020000C941B030C941B030C941B030C949A1F3D
:100030000C941B030C9451220C9483220C941B03EC
:100040000C941B030C941B030C941B030C94821E36
:100050000C941B03494F533A20436865636B20534C
:100060004420616E642070726573732061206B653B
:100070007920746F207265706561740D0A000D0A35
:100080000A494F533A20456D7074792066696C6552
:10009000202D204C6F61642061626F727465642151
:1000A000000D0A0A494F533A204F76657272756EF9
:1000B000206572726F72202D204C6F616420616226
:1000C0006F727465642100494F533A204375727210
:1000D000656E742000202020202020202020202059
:1000E0002020202020200D000D0A507265737320FF
:1000F000435220746F206163636570742C204553F4
:100100004320746F2065786974206F7220616E7966
:10011000206F74686572206B657920746F20636846
:10012000616E67650020393A204368616E6765201B
:100130005254432074696D652F64617465002038E2
:100140003A204368616E67652043502F4D2041750A
:10015000746F6578656320282D3E0020373A204370
:1001600068616E67652056323020636C6F636B2068
:10017000737065656420282D3E0020353A204C6F51
:100180006164204F532066726F6D200020343A2046
:100190004175746F626F6F742D38300020333A20D0
:1001A0004175746F626F6F740020323A20694C6F32
:1001B00061642D38300020313A20694C6F61640051
:1001C00020303A204E6F206368616E6765202800FA
:1001D000494F533A2053656C65637420626F6F74A6
:1001E000206D6F6465206F722073797374656D2064
:1001F000706172616D65746572733A0D0A00494FE2
:10020000533A2043502F4D204175746F65786563D4
:100210002069732000494F533A20466F756E642061
:10022000475045204F7074696F6E00494F533A2014
:1002300056323020636C6F636B2073657420617479
:100240002000494F533A20466F756E6420657874DC
:10025000656E6465642073657269616C20527820F4
:10026000627566666572000D0A0A5632302D4D427F
:1002700043202D20413235303232300D0A494F5360
:10028000202D20492F4F2053756273797374656D4B
:10029000202D20533236303332302D523236303822
:1002A00032305F444556454C320D0A00AE02EB1E1B
:1002B000000000000000000000000000000000003E
:1002C0000000000000000000000000000000BC1062
:1002D000FD8CC88ED88ED0BB65FDE82102E8610296
:1002E000E8E200B0FF38F8751138D8750DBBECFDA9
:1002F000E80B02BB9BFDE80502F453BBECFDE8FDF7
:1003000001BB88FDE8F7018CCBE80302B03AE83D79
:10031000025BE8FA01E82902E82602E4013CFF75E5
:10032000FAFFE3694C6F6164202D20496E74656C9F
:100330002D486578204C6F61646572202D20533202
:100340003030323230005374617274696E6720410C
:100350006464726573733A20004C6F616420657247
:10036000726F72202D2053797374656D2068616CF3
:100370007465640057616974696E6720696E707591
:10038000742073747265616D2E2E2E0053796E7415
:100390006178206572726F722100436865636B73C8
:1003A000756D206572726F722100694C6F61643ADD
:1003B0002000416464726573732076696F6C6174A8
:1003C000696F6E2100505251B9FFFFBBB6FDE82D99
:1003D00001E86D01E882013C0D74F93C0A74F53CBA
:1003E0002074F1E80001E865013C3A754DE8BB0076
:1003F00088C6B200E8A400E8A400B0FF38E875069B
:1004000038C8750289D988F8E8900088D8E88B0048
:10041000E89800E885003C017532E88E00E87B0032
:1004200088D020C0746CE81801BBECFDE8CF00BB9D
:10043000DCFDE8C900B9FFFFEB58E80401BBECFDA7
:10044000E8BB00BBCEFDE8B500B9FFFF88F020C0D7
:10045000742EE85600E84300535120C0B9F0FC293F
:10046000CB595B7214E8D900BBECFDE89000BBF4FB
:10047000FDE88A00B9FFFFEB19880743FECEEBCCFD
:10048000E82800E8150088D020C0759AE8B200E995
:1004900042FFE8AC0089CB595A58C328C2C350E880
:1004A000090088C7E8040088C358C351E80D00B1AB
:1004B00004D2C088C4E8040008E059C3E89A00E800
:1004C0002400E8090073F5E82900E86400C33C470C
:1004D0007201C33C307302F8C33C3A7301C33C4120
:1004E0007302F8C3F9C33C617301C33C7B7201C35F
:1004F000245FC33C3A72022C072C30240FC35053A4
:100500008A073C007406E8450043EBF45B58C3538C
:100510005088F8E8080088D8E80300585BC35051B9
:1005200088C4B104D2C8E8080088E0E8030059583C
:10053000C350240F04303C3A72020407E80F0058FD
:10054000C350B00DE80700B00AE8020058C388C4E1
:10055000B001E60188E0E600C3E4013CFF74FAC3A1
:100560000000000200000000000000000504000779
:10057000000000000000000000000000000000007B
:10058000010204081020408001020408102040806D
:10059000010204081020408001020408102040805D
:1005A000020202020202020204040404040404041B
:1005B000030303030303030301010101010101011B
:1005C0000000390036003300300000003B003800E6
:1005D0003500320000003A003700340031002605B3
:1005E000841DB322320511241FBECFE5D8E0DEBF43
:1005F000CDBF14E0A0E6B0E0E0E9F0E502C0059070
:100600000D92A832B107D9F726E0A8E2B4E001C004
:100610001D92AD35B207E1F712E0C2EFD2E004C09F
:100620002197FE010E948D25CF3ED107C9F70E9478
:100630003B250C943B280C9400001F93CF93DF9331
:10064000EC01162F0E94EF27181739F0612FCE0109
:10065000DF91CF911F910C94F727DF91CF911F91DC
:1006600008950C94EF27DC01ED91FC910190F0814D
:10067000E02D09940F931F93CF93DF93EC010E9419
:10068000E41F088119812A813B81601B710B820B59
:10069000930B693C71058105910580F080E00E9413
:1006A000FC2061E0892B09F060E080E00E94CE2010
:1006B0000E94E41F688379838A839B83DF91CF91B3
:1006C0001F910F9108956AE00E944B258295807FCB
:1006D000890F0895982F92959F708F702AE0929FAE
:1006E000800D11240895CF93C82F8A3030F46EE71F
:1006F00070E08CE795E00E943E234AE050E06C2FCA
:100700008CE795E0CF910C9434240F931F93CF93F3
:10071000DF938C01D0E0C0E0C017D10751F061E059
:100720008FE00E94CE2060E08FE00E94CE202196D4
:10073000F3CFDF91CF911F910F91089561E082E097
:100740000E94CE2088EE93E00E94850360E082E064
:100750000C94CE20CF93DF93C82FDAE081E090E0B5
:100760000E94850382E10E94FC20019781F081E0D4
:1007700090E00E94850382E10E94FC20892B81F099
:100780006FE970E08CE795E00E946323FFCFD150C2
:1007900029F760E870E08CE795E00E946323FFCFC3
:1007A00061E08EE00E94CE20DFEFDABB8C2F867FE7
:1007B0008BBB3BB38C2F90E0C3FB222720F9232B6C
:1007C0002BBB2BB333E0880F991F3A95E1F7887064
:1007D000822B8BBB81E090E00E9485031ABADBBBC1
:1007E00060E08EE0DF91CF910C94CE20CF93DF9329
:1007F000D82FC92F88EB0E94AA038D2F0E94AA032D
:100800008C2F0E94AA038EE80E94AA0388EDDF9134
:10081000CF910C94AA031F93CF93DF93C82F162F69
:10082000D72F86EC0E94AA0386E00E94AA03812F9C
:100830000E94AA038D2F0E94AA038C2FDF91CF91D3
:100840001F910C94AA030E94911608950E949F176D
:1008500008950F931F93CF93DF9300D0CDB7DEB7EA
:100860008B01AE014F5F5F4F60E270E00E9426197E
:100870009981F80190830F900F90DF91CF911F9194
:100880000F9108950F931F93CF93DF9300D0CDB7AF
:10089000DEB78B01AE014F5F5F4F60E270E0009703
:1008A00021F470E060E090E080E00E94F819998106
:1008B000F80190830F900F90DF91CF911F910F91CE
:1008C0000895B0E0A0E0BC01CD0129E0660F771FDC
:1008D000881F991F2A95D1F70E94FC1A08950F933B
:1008E0001F93CF93DF93662309F476C08A01C62F46
:1008F000D82F6CEB70E08CE795E00E943E234AE035
:1009000050E06C2F8CE795E00E94342469E272E09D
:100910008CE795E00E943E2360EE70E0C330C1F0AA
:1009200058F46DEC70E0C13099F066ED70E0C230C3
:1009300079F06DE071E00CC063EF70E0C53041F01C
:1009400068EE70E0C53020F06FEF70E0C63089F7D8
:100950008CE795E00E943E2365E171E08CE795E02D
:100960000E943E2365E271E0D230A1F058F46AE1C2
:1009700071E0DD2379F060E271E0D13059F06DE093
:1009800071E008C06AE271E0D33021F060E371E009
:10099000D430A9F78CE795E00E943E2365E371E02F
:1009A0008CE795E00E943E230115110559F060E4A3
:1009B00071E08CE795E00E943E23B8018CE795E05A
:1009C0000E943E2365E073E08CE795E0DF91CF91D4
:1009D0001F910F910C946323DF91CF911F910F9181
:1009E0000895CF93C82F6AE471E08CE795E00E94E8
:1009F0003E234AE050E06C2F8CE795E00E943424BF
:100A0000C05DC093690087E690E00E9426046DE215
:100A100074E082E394E00E94290480912D048823ED
:100A200099F069E272E08CE795E00E943E2362E370
:100A300074E08CE795E00E943E2365E073E08CE76C
:100A400095E0CF910C943E23CF91089564E571E039
:100A500084EA94E00E94AA246DE571E08EE994E0B6
:100A60000C94AA248EE994E00E943B2484EA94E04A
:100A70000C943B248CE795E00E942521181619065A
:100A80002CF48CE795E00E943F21F4CF64E570E000
:100A90008CE795E00E9451238CE795E00E94252188
:100AA00018161906CCF70895CF93DF93EC0182E571
:100AB00094E00E9491168823B1F082E594E00E94B0
:100AC000911680932E04882371F050E040E06091ED
:100AD0002E0480E00E946F040E943A0582E594E0B3
:100AE0000E942304EACFCE010E949F1780932E0418
:100AF0008823F9F0AE0160912E0481E00E946F041A
:100B00000E943A05CE010E949F1780932E048330E5
:100B100069F082E594E00E94230482E594E00E945B
:100B20002304CE010E949F1780932E0480912E04EF
:100B3000DFCFDF91CF910895EF92FF920F931F9334
:100B4000CF93DF937C0101E010E0E7016DE274E0F8
:100B500082E394E00E94290480932E0480912D0466
:100B6000811100E010928F04E0918F0480912D0498
:100B7000E817D8F4112339F061EA70E08CE795E0CA
:100B80000E941A23FFCFF0E0EE5CFB4FBE01808194
:100B90000E940B04219680918F048F5F80938F04B5
:100BA00011E0209709F310E0DFCF60912E0480322E
:100BB00081F4662359F2409130045091310482E06F
:100BC0000E946F040E943A0590E080E00E94610458
:100BD00002C06111F0CF80912E048111B6CF0023A5
:100BE00039F06EE770E08CE795E00E941A23FFCFA2
:100BF000CE018E199F09DF91CF911F910F91FF9028
:100C0000EF900895EF920F93CF93C22F68E670E0B4
:100C10008FEA94E00E94061D70E060E08FEA94E0A5
:100C20000E943303809184040E946303682F8FEA3B
:100C300094E00E948E1C809183040E946303682FBD
:100C40008FEA94E00E948E1C809182040E946303CC
:100C5000682F8FEA94E00E948E1C61E070E08FEABA
:100C600094E00E9433038C2F0E946303682F8FEA65
:100C700094E00E948E1C802F0E946303682F8FEAED
:100C800094E00E948E1C8E2D0E946303682F8FEAD1
:100C900094E00E948E1C8FEA94E0CF910F91EF9028
:100CA0000C94811D6F927F928F929F92AF92BF9210
:100CB000CF92DF92EF92FF920F931F93CF93DF9328
:100CC0004C015B01EA01390168E670E08FEA94E0CB
:100CD0000E94061D70E060E08FEA94E00E943303FA
:100CE0008FEA94E00E94811D42E150E068E670E0E6
:100CF0008FEA94E00E947E1D8FEA94E00E94351CEA
:100D00008F770E946A03F40180838FEA94E00E9447
:100D1000351C0E946A03F50180838FEA94E00E94EB
:100D2000351C8F730E946A0388838FEA94E00E94C7
:100D3000351C8FEA94E00E94351C0E946A03F3017F
:100D400080838FEA94E00E94351C0E946A03F801B8
:100D500080838FEA94E00E94351C0E946A03F701A9
:100D60008083CAE08FEA94E00E94351CC150D1F71D
:100D70008FEA94E00E94351CF6018083DF91CF91C9
:100D80001F910F91FF90EF90DF90CF90BF90AF90A9
:100D90009F908F907F906F900895AF92BF92CF9267
:100DA000DF92EF92FF920F931F93CF93DF9300D0C8
:100DB00000D0CDB7DEB759011C821B821A8219827E
:100DC00028E83CE1D5012D933C93FE0131966F015B
:100DD0009E012E5F3F4F79018E010D5F1F4F2E5FE9
:100DE0003F4F0E9452064A8150E030E020E0D5019A
:100DF0008D919C91119724173507B4F02B812150C8
:100E0000330BE8EFF3E0D5014D915C911197CF01E1
:100E1000885F934082179307BCF48191840F952FCC
:100E2000911D8D939C93EFCF622F637041F4825993
:100E30009E4FF501918380832F5F3F4FD8CF835919
:100E40009E4F8D939C93F8CF8C81840F952F911D8D
:100E5000F501918380830F900F900F900F90DF9199
:100E6000CF911F910F91FF90EF90DF90CF90BF90A7
:100E7000AF900895CF92DF92EF92FF920F931F935E
:100E80008823A1F08EE7C82E84E0D82E9FE7E92EB4
:100E900094E0F92E00E814E021E834E042E854E060
:100EA00063E874E084E894E00E9452068091810433
:100EB0000E94730369E671E08CE795E00E943E238F
:100EC000809180040E94730369E671E08CE795E0ED
:100ED0000E943E2380917F040E94730363ED71E0C2
:100EE0008CE795E00E943E23809182040E94730368
:100EF00063E871E08CE795E00E943E2380918304D3
:100F00000E94730363E871E08CE795E00E943E2342
:100F1000809184041F910F91FF90EF90DF90CF900C
:100F20000C947303CF92DF92EF92FF920F931F9373
:100F3000CF93DF938EE7C82E84E0D82E9FE7E92E6B
:100F400094E0F92E00E814E021E834E042E854E0AF
:100F500063E874E084E894E00E94520610929604DC
:100F60006BE671E08CE795E00E94632365E871E031
:100F70008CE795E00E946323CAE0D6EF11E063EDB1
:100F800071E08CE795E00E943E23809196048230C8
:100F900009F489C008F064C0882309F470C0813066
:100FA00009F478C00E94E41F609398047093990438
:100FB00080939A0490939B0488E994E00E943A03FA
:100FC0008CE795E00E943F2180939704853709F4D0
:100FD00090C0853509F48DC0843709F496C08435F6
:100FE00009F493C08D3041F76DE08CE795E00E94E5
:100FF000B121809197048D3011F6809196048F5F16
:1010000080939604863008F4BACFE0907F04009174
:101010008004209181044091820460918304809136
:1010200084040E94020660E072E08CE795E00E9472
:1010300063236FE072E08CE795E00E943E2381E03D
:101040000E943A0765E073E08CE795E0DF91CF916D
:101050001F910F91FF90EF90DF90CF900C9463233E
:101060008430F1F1A0F1853009F09CCF64EF71E09C
:101070008CE795E00E943E238091840408C064EBD5
:1010800071E08CE795E00E943E2380917F040E94EE
:10109000730388CF6DEB71E08CE795E00E943E23EF
:1010A00080918004F4CF67EC71E08CE795E00E94BA
:1010B0003E236DE08CE795E00E94B12165ED71E083
:1010C0008CE795E00E943E2380918104E0CF6EED95
:1010D00071E08CE795E00E943E2380918204D7CF97
:1010E00068EE71E08CE795E00E943E2380918304D6
:1010F000CECF909196049230F1F1E8F4992351F11A
:10110000913089F1843709F06FCF80919604823055
:1011100009F48AC008F062C0882309F470C08130E5
:1011200009F062CF809180048B3008F478C08A5037
:101130008093800459CF943009F447C0E8F195308A
:1011400009F7809184048F5F8C3308F4C7C0109234
:1011500084044ACF80917F048F5F843608F4BBC03B
:1011600010927F0441CF809180048F5F8D3000F317
:101170009093800439CF809181048F5F80938104A4
:10118000E0918004E23089F490E020917F042370A4
:1011900049F42DE130E0281739070CF025CF1093E2
:1011A000810422CF2CE130E0F6CFF0E0E950FC4F93
:1011B00090819817A0F318CF809182048F5F8831B7
:1011C00008F483C0109282040FCF809183048F5F54
:1011D0008C3308F47DC01092830406CF843009F468
:1011E0005CC008F44AC0853009F0FECE209184042A
:1011F000265F2C3308F061C020938404F5CE209143
:101200007F04265F243618F420937F04EDCE822FCE
:101210006C2F0E944B258D9F200D1124F5CF83301C
:1012200008F0E2CE865F84CF20918104265F209370
:101230008104422F50E0E0918004F0E0E950FC4F3F
:10124000808190E030917F04337061E070E011F0B4
:1012500070E060E0860F971F841795074CF4822F8B
:101260006C2F0E944B258D9F200D1124209381040B
:10127000809181048111B8CE92CF20918204265FA3
:10128000283118F420938204AFCE822F6C2F0E9455
:101290004B258D9F200D1124F5CF20918304265FCF
:1012A0002C3318F4209383049FCE822F6C2F0E943E
:1012B0004B258D9F200D1124F5CF822F6C2F0E947E
:1012C0004B258D9F200D112497CF809382048CCEC7
:1012D0008093830489CE80937F0486CE8093840498
:1012E00083CEEF920F93CF93DF9300D000D000D046
:1012F000CDB7DEB768E670E08FEA94E00E94061D85
:101300008FEA94E00E94811D811176C16CE272E047
:101310008CE795E00E943E2381E00E943A0765E059
:1013200073E08CE795E00E9463236BE472E08CE746
:1013300095E00E943E2360917E04062E000C770B00
:101340004AE050E08CE795E00E94202460E772E0DC
:101350008CE795E00E94632368E670E08FEA94E0F2
:101360000E94061D6FE070E08FEA94E00E94330354
:101370008FEA94E00E94811D41E050E068E670E051
:101380008FEA94E00E947E1D8FEA94E00E94351C53
:1013900087FF0AC128E030E046E050E064EA74E0EC
:1013A000CE0101960E94E924CE0101960E942F25CC
:1013B00060938404CE0101960E943B2425E030E036
:1013C00043E050E064EA74E0CE0101960E94E92413
:1013D000CE0101960E942F2560938304CE010196D1
:1013E0000E943B2422E030E050E040E064EA74E0F8
:1013F000CE0101960E94E924CE0101960E942F257C
:1014000060938204CE0101960E943B2426E030E0E6
:1014100044E050E06EE974E0CE0101960E94E924B8
:10142000CE0101960E942F2560938104CE01019682
:101430000E943B2470E060E08EE994E00E94D82492
:10144000EFEBE80FE33108F02FC00E2E000CFF0B7E
:10145000E45DF54F0C948D25DC0A540A540AFA0A0F
:10146000540ADA0A540A540A540A3F0A540A540A1B
:10147000E80AF80AF60A540A540A540AF40A61E01F
:1014800070E08EE994E00E94D824813609F48EC081
:1014900062E070E08EE994E00E94D8248E3609F470
:1014A00087C087E0809380042BE030E049E050E083
:1014B0006EE974E0CE0101960E94E924CE01019606
:1014C0000E942F2560937F04CE0101960E943B2449
:1014D00062E772E08CE795E00E9463236AE872E0BD
:1014E0008CE795E00E943E2380E00E943A0765EB7E
:1014F00072E08CE795E00E943E230E94E41F609317
:1015000098047093990480939A0490939B0488E9BB
:1015100094E00E943A038CE795E00E943F2180937B
:101520009704893731F0893521F08E3611F08E34E9
:1015300071F7682F8CE795E00E947A2380919704D9
:101540008F7D8935D9F4E0907F040091800420914B
:1015500081044091820460918304809184040E94FC
:10156000020660EC72E08CE795E00E943E2381E089
:101570000E943A078CE795E00E944D2368E670E0F0
:101580008FEA94E00E94061D6FE070E08FEA94E01D
:101590000E94330368E070E08FEA94E00E94330316
:1015A0008FEA94E00E94811D81E027C081E07ACF1C
:1015B00086E078CF82E076CF62E070E08EE994E05A
:1015C0000E94D824823711F088E06CCF84E06ACF83
:1015D00062E070E08EE994E00E94D824823711F036
:1015E00085E060CF83E05ECF89E05CCF8AE05ACFB0
:1015F0008BE058CF8CE056CF80E026960FB6F8945B
:10160000DEBF0FBECDBFDF91CF910F91EF90089558
:10161000AF92BF92CF92DF92EF92FF920F931F9300
:10162000CF93DF9361E08FE00E94922060E08FE033
:101630000E94CE2061E082E00E94922060E082E081
:101640000E94CE2061E080E00E94922060E080E075
:101650000E94CE2061E083E00E94922060E083E05F
:101660000E94CE2061E08EE00E94922061E08EE038
:101670000E94CE2060E08AE00E94922061E081E03A
:101680000E94922060E081E00E94CE2062E08BE127
:101690000E94922062E089E10E94922062E08AE149
:1016A0000E94922062E088E10E94922062E08CE138
:1016B0000E94922062E08DE10E94922062E08EE121
:1016C0000E94922062E08FE10E94922062E085E118
:1016D0000E94922062E086E10E94922062E084E112
:1016E0000E94922062E082E10E94922062E083E107
:1016F0000E9492200E949E0361E080E00E94CE2022
:1017000070E060E080E00E940B0462E08CE00E94E8
:10171000922061E08BE00E94922060E08BE00E94CA
:10172000CE2064E670E080E090E00E94162061E048
:101730008BE00E94CE2064EF71E080E090E00E9498
:10174000162062E08DE00E9492208DE00E94FC2035
:10175000EC0161E08DE00E94922061E08DE00E944A
:10176000CE208EE090E00E943103809328048330E5
:1017700038F060E08EE090E00E941D031092280493
:1017800026E040E052EC61E070E08CE795E00E94DA
:10179000F82167E672E08CE795E00E941A238CE757
:1017A00095E00E944D2362E472E08CE795E00E9490
:1017B00051238DE090E00E94310380938E048230AB
:1017C00040F061E08DE090E00E941D0381E0809395
:1017D0008E046BE272E08CE795E00E941A23809100
:1017E0008E0465EE72E0811102C067EE72E08CE754
:1017F00095E00E943E2369EE72E08CE795E00E943E
:1018000063238FEA94E00E94EA1C60E270E08FEAB2
:1018100094E00E94061D8FEA94E00E94811D8111D0
:1018200003C081E080938D040E9471098093850438
:1018300080918D04882331F065E172E08CE795E0BA
:101840000E9451236EEF71E08CE795E00E941A230D
:101850008CE090E00E943103823028F060E08CE060
:1018600090E00E941D038CE090E00E943103809381
:101870002F046DEE72E0811102C060EF72E08CE720
:1018800095E00E94632382E594E00E94230482E5B0
:1018900094E00E9423048AE090E00E943103809348
:1018A0008C04CD2B19F0853008F4E0C08CE795E06E
:1018B0000E942521181619062CF48CE795E00E9449
:1018C0003F21F4CF8CE795E00E944D2360ED71E05D
:1018D0008CE795E00E94512380918C04D1E3853000
:1018E000C0F460EC71E08CE795E00E941A236091EF
:1018F0008C0470E06F5F7F4F4AE050E08CE795E02A
:101900000E94202465E073E08CE795E00E94632349
:10191000D0E366EB71E08CE795E00E94512369EA21
:1019200071E08CE795E00E9451236CE971E08CE74F
:1019300095E00E9451236CE871E08CE795E00E94ED
:1019400051236AE771E08CE795E00E941A238091A9
:1019500028040E94F10464EF72E08CE795E00E9495
:101960003E23809128040E94F1048CE795E00E94B8
:101970004D236BE571E08CE795E00E941A2380917E
:101980008E0467EE72E0811102C065EE72E08CE7B2
:1019900095E00E943E2362E073E08CE795E00E94B0
:1019A00063236EE371E08CE795E00E941A23809137
:1019B0002F046DEE72E0882311F060EF72E08CE787
:1019C00095E00E943E2365E073E08CE795E00E947D
:1019D000632380918504C8E3882339F065E271E0D0
:1019E0008CE795E00E945123C9E38CE795E00E94C3
:1019F0004D230E94E41F6093980470939904809390
:101A00009A0490939B0467E073E08CE795E00E9452
:101A10003E2388E994E00E943A038CE795E00E9417
:101A20003F21809397048D17A4F3C81794F3682F70
:101A30008CE795E00E9446236BE173E08CE795E02C
:101A40000E946323809197048733D9F19CF58633F4
:101A500009F44DC060919704615360938C048AE04F
:101A600090E0653008F09EC00E941D0380918C04B8
:101A7000843071F467EC70E08CE795E00E941A23E3
:101A8000809128040E94F1048CE795E00E944D2388
:101A900080918C04823009F4BCC008F088C088238F
:101AA00009F497C0813009F4A9C010E0D0E0C0E08B
:101AB00000E0E3C1883389F0893361F60E94920720
:101AC000C9CF61E080918E04811160E060938E0443
:101AD0008DE090E00E941D03BDCF61E080912F0456
:101AE000811160E060932F048CE090E0F3CF68EE0A
:101AF00070E08CE795E00E94512380912804809348
:101B00008F04C3E0D0E080918F0490E00196BE0185
:101B10000E94572580938F0460E273E08CE795E084
:101B20000E943E2380918F040E94F10465ED70E0D5
:101B30008CE795E00E941A238CE795E00E9425210E
:101B4000181619062CF48CE795E00E943F21F4CF7B
:101B50008CE795E00E942521181619062CF088E9DB
:101B600094E00E943A03F4CF8CE795E00E943F2175
:101B7000809397048D3011F08B3129F68CE795E036
:101B80000E944D238CE795E00E944D23809197049D
:101B90008D3009F05FCF60918F04609328048EE050
:101BA00090E098CF0E94310380938C045FCF833004
:101BB00099F1843009F079CF80912804813009F4BB
:101BC0004CC108F43DC1823009F06FCF8FE593E03E
:101BD00017C0ECEAF2E08591949190938B04809386
:101BE0008A0482EB92E0909389048093880480EFCA
:101BF0009CEF909387048093860457CF85E293E00F
:101C000090933104809330041092870410928604DC
:101C10004CCF81E393E0F4CF8EE393E090933104D3
:101C200080933004109287041092860411E0D0E073
:101C3000C0E000E080EFE82E8FE0F82E0E949E03C7
:101C400061E080E00E94CE2011111AC1209721F49A
:101C5000C0918604D09187048FEF9FEF0E94F60316
:101C600070E060E08AEE0E940B0461E070E08C2F6F
:101C70000E940B0462E070E08D2F0E940B0463E071
:101C800070E0802F0E940B0464E070E080E00E940E
:101C90000B04C7010E94F60380918C04882309F489
:101CA000F6C080913004909131040E94540569E699
:101CB00073E08CE795E00E943E23609130047091C0
:101CC00031048CE795E00E943E2365E873E08CE7E1
:101CD00095E00E943E2380918604909187040E94A3
:101CE0009C056C0167EA73E08CE795E00E94632332
:101CF00084EF0E94AA038FE090E00E9485036CE2CB
:101D000071E080E090E00E941620112309F457C092
:101D10000E949E038DEA93E09093310480933004F7
:101D200090E080E00E94F6031092870410928604EF
:101D300080913004909131040E94540569E673E06B
:101D40008CE795E00E943E2360913004709131044D
:101D50008CE795E00E943E2365E873E08CE795E010
:101D60000E943E2380918604909187040E949C05E6
:101D700067EA73E08CE795E00E94632361EC70E012
:101D80008A2D0E940B0462EC70E08B2D0E940B04E4
:101D900063EC70E08C2D0E940B0464EC70E08D2DE0
:101DA0000E940B0484EF0E94AA038FE090E00E943F
:101DB00085036CE271E080E090E00E94162060E014
:101DC00080E00E94CE200E949E0361E080E00E949D
:101DD000CE2061E081E00E94CE2061E082E00E949E
:101DE000CE2082B5877F82BD85B5816085BD85B5F2
:101DF000897F85BD85B5886085BD85B58F7B85BDAF
:101E000085B5806185BD85B58F7D85BD80918E044A
:101E100083BD61E08FE00E9492206AEB73E08CE763
:101E200095E00E9463238CE795E00E942521181617
:101E300019060CF04DC08CE795E00E943F21F3CFCE
:101E40008BE493E0909331048093300480EE91ED25
:101E50009093870480938604E9CE85E593E0909380
:101E600031048093300480E094E090938704809361
:101E7000860410E0C0E0D5E200E4F12CE12CDECED7
:101E8000A0908604B0908704D0E0C0E0E5CE6AE878
:101E900073E08CE795E00E943E23D0E0C0E08091A3
:101EA000880490918904C817D90708F01BCFE091E6
:101EB0008A04F0918B04EC0FFD1F849160918604DD
:101EC000709187046C0F7D1F0E940B042196E7CF51
:101ED00061E070E080E090E00E94162060E082E027
:101EE000DF91CF911F910F91FF90EF90DF90CF90F6
:101EF000BF90AF900C94CE20CF92DF92EF92FF92E2
:101F00000F931F93CF9382992DC09B99C4C183B324
:101F100090E0E5E095958795EA95E1F7982F937025
:101F200090939D0429B3267F20939C0469B363FB9F
:101F3000662760F9622B60939C0489B348E0849F14
:101F4000900111242870262B20939C04992309F4D6
:101F500047C0913009F498C1C098C09AF894C198CC
:101F6000C19A78948CE795E00E942521892B41F055
:101F700080919204882321F061E083E00E94CE20CA
:101F800080919104882321F10E94E41F009198041C
:101F90001091990420919A0430919B04601B710B5D
:101FA000820B930B653671058105910588F061E020
:101FB00083E00E94CE2081E0809390040E94E41F81
:101FC000609398047093990480939A0490939B046F
:101FD000CF911F910F91FF90EF90DF90CF900895D8
:101FE000E0917D00ED30C0F4F0E0E750F04F0C944C
:101FF0008D25061018101E102910441051105F1066
:102000006D107B108910A710D410E81060E020FF3D
:1020100061E08DE00E94CE2080917D008A3009F43D
:102020009BCF8C3009F498CF8FEF80937D0094CFB5
:10203000622F8CE795E00E94B121EECF20FF03C014
:1020400081E08093920421FFEFCF81E0809391049F
:10205000E3CF80918D04882339F360E270E08FEA4A
:1020600094E00E94061D62E170E08FEA94E00E9415
:10207000330360919C048FEA94E00E948E1C8FEAE7
:1020800094E00E94811DC8CF80918D04882361F265
:1020900060E270E08FEA94E00E94061D63E170E068
:1020A000E4CF80918D04882309F4BECF60E270E014
:1020B0008FEA94E00E94061D70E060E0D6CF809128
:1020C0008D04882309F4B0CF60E270E08FEA94E0D9
:1020D0000E94061D61E070E0C8CF80918D048823C6
:1020E00009F4A2CF60E270E08FEA94E00E94061D3E
:1020F0006CE070E0BACF80918D04882309F494CF0E
:1021000060E270E08FEA94E00E94061D6DE070E0EE
:10211000ACCF80E12436C0F480912804805D8093A8
:102120007400822F6AE00E944B2590E3980F9093F1
:102130007600205D56EF859F200D112420937700B7
:1021400082E790E00E949F178093660065CF8091A0
:10215000930490919404622F70E0009751F470936F
:102160002C0460932B040196909394048093930421
:1021700053CF20912B04362F30932C0420932B0423
:1021800040912A042115324040F4403248F4109224
:1021900066002FEF20937D00E6CF21E1403208F06A
:1021A00022E120936600F5CF20932A0480912B042E
:1021B00090912C048115924028F4203238F410922A
:1021C00066002ACF81E1203208F4BECF82E1BCCF85
:1021D0008091930490919404892BD1F480912B04E5
:1021E00090912C04811542E0940790F420912A04E8
:1021F000203270F43091660031110AC075E0880F0A
:10220000991F7A95E1F7822B0E9461048093660002
:1022100080916600811133C0809193048F71809307
:102220009604E82FF0E0EE5CFB4F90919C049083C5
:102230008F3129F569E274E082E394E00E94420460
:102240008093660080912904803218F483E18093A2
:10225000660080919304909194048F3F914078F0B0
:1022600080916600811108C069E274E090E080E02E
:102270000E944204809366008FEF80937D008091DE
:102280009304909194046FCF20937D001092940456
:102290001092930461CE9A99BDC183B390E065E03A
:1022A000959587956A95E1F7837080939D041092C8
:1022B0009C04813009F488C118F1823009F496C178
:1022C000CFEFCABB80919C04867F8BBB8BB3909170
:1022D0009C0493FB992790F9892B8BBB2BB390918E
:1022E0009C0448E0949FC00111248870822B8BBB12
:1022F000C09881E090E00E944F201ABACBBB2DCE4F
:10230000E0917D00E058E13108F031C0F0E0E557A0
:10231000FE4E0C948D259C11C511EE11B711FB11C9
:1023200048124B12A212A712B711B711B711B71169
:10233000B711B711B711AC128DE00E94FC20809349
:10234000960462E08DE00E9492208DE00E94FC20C5
:1023500021E0892B09F020E020939C0461E08DE0CE
:102360000E949220609196048DE00E94CE20809180
:102370007D00982F9D7F943809F4A2CF803909F40D
:102380009FCF8FEF80937D009BCF80918D0488231A
:1023900071F360E270E08FEA94E00E94061D62E152
:1023A00070E08FEA94E00E9433038FEA94E00E9489
:1023B000811D60E270E08FEA94E00E94061D41E01A
:1023C00050E060E270E08FEA94E00E947E1D8FEAA8
:1023D00094E00E94351C80939C04C9CF80918D04A9
:1023E000882329F260E270E08FEA94E00E94061DE3
:1023F00063E170E0D6CF80918504882309F444C05E
:102400008091930490919404892BA1F44EE7C42EFB
:1024100044E0D42E5FE7E52E54E0F52E00E814E00A
:1024200021E834E042E854E063E874E084E894E0B2
:102430000E945206809193049091940487309105F4
:1024400018F52091810483309105D9F058F481303A
:10245000910509F4A6C08230910509F4B2C020911B
:1024600084040FC020917F048530910551F02091A4
:1024700080048530910528F020917E0486309105F6
:1024800071F720939C0458C08FEF80937D006FCF2D
:1024900080916600A0CF8091930490919404892B41
:1024A000D1F480912B0490912C04811522E09207A5
:1024B00090F420912A04203270F43091660031119A
:1024C0000AC035E0880F991F3A95E1F7822B0E94E8
:1024D00061048093660080916600811122C0809122
:1024E00093048F7180939604811113C06DE274E0A0
:1024F00082E394E00E9429048093660080912D0479
:10250000803218F483E18093660080916600811127
:1025100008C0E0919604F0E0EE5CFB4F8081809370
:102520009C0480919304909194048F3F31E0930731
:1025300018F02FEF20937D000196909394048093E0
:10254000930415CF82E594E00E94911644CF8CE766
:1025500095E00E9453213FCF80918504882309F4A0
:1025600093CF8091930490919404892B51F42CE79C
:1025700034E042E854E063E874E084E894E00E94C8
:10258000CD0680919304909194048530910508F0D4
:102590007BCF82309105A9F038F48130910509F0A4
:1025A0005ECF209183046DCF20917C048330910510
:1025B00009F467CF20917D048430910509F461CF3F
:1025C0004ECF209182045DCF8FEF80939C048CE7E7
:1025D00095E00E9425211816190634F48CE795E041
:1025E0000E943F2180939C04C3986ACEC0918504C9
:1025F000CC0F80912F04C82B8CE795E00E942521F9
:10260000181619062CF484E0C82BC0939C0458CEED
:1026100080E0FACF87E10E94FC20892B41F5C39826
:1026200080919004882309F11092900481E48093B2
:102630009C04CFEFCABB80919C04867F8BBB8BB37D
:1026400090919C0493FB992790F9892B8BBB2BB31A
:1026500090919C0458E0959FC00111248870822BB2
:102660008BBBC09882E090E046CE80E4E0CF8091C2
:102670009504811177CC6DED73E08CE795E00E94B5
:10268000632381E0809395046DCC8FB9779BFECF57
:1026900008958FEF0E9445138FB10895FF920F9315
:1026A0001F93CF93DF93C82FD42F152F062FF72E0C
:1026B0008091AC0481113FC083E58DB91EB8C7FF7E
:1026C00009C040E050E0BA0187E70E944E13823013
:1026D00060F5CF7761E084E00E94CE200E9449132C
:1026E00060E084E00E94CE200E9449138C2F0E945B
:1026F00045138F2D0E944513802F0E944513812F73
:102700000E9445138D2F0E94451385E9C03421F0A6
:1027100087E8C83409F081E00E944513CAE00E94AE
:10272000491387FF02C0C150D1F7DF91CF911F91AC
:102730000F91FF90089580E58DB981E08EB9BFCFEC
:102740000F931F93CF93DF93C091AA04D091AB0452
:102750002197CD3F8FEFD80721F080E00E944513ED
:10276000F7CF0E9449138F71853079F0D1E0C0E036
:1027700061E084E00E94CE200E9449138D2F9C2F9F
:10278000DF91CF911F910F91089508E813E1C0E9FF
:10279000D1E00E9449138F3F49F00115110531F333
:1027A000CE010197F1F701501109F3CFD1E0C0E05C
:1027B000012BF1F2D0E0DCCFAF92BF92CF92DF924B
:1027C000EF92FF920F931F93CF93DF9300D000D02F
:1027D000CDB7DEB78091AC04882339F084E00E9445
:1027E000FC20892B11F40E94A01361E084E00E9478
:1027F000CE2061E084E00E94922061E085E00E94AA
:10280000922061E087E00E94922061E084E00E94D3
:10281000922083E58DB91EB861E084E00E94CE204D
:102820001AE00E9449131150E1F740E050E0BA016C
:1028300080E40E944E13182F8130D9F010E01093DD
:10284000AC0461E084E00E94CE200E94491381E044
:10285000111180E00F900F900F900F90DF91CF91AA
:102860001F910F91FF90EF90DF90CF90BF90AF90AE
:1028700008954AEA51E060E070E088E40E944E1357
:10288000813079F5CE0101967C016E0195E0C90E8B
:10289000D11C87010E944913F80181938F01CE1644
:1028A000DF06C1F78B81813049F68C818A3A31F697
:1028B00020E1C22E27E2D22E30E9A32EBB24B3940E
:1028C00040E050E060E070E489EE0E944E138823FF
:1028D00059F1C5010197F1F7F1E0CF1AD10881F75D
:1028E000ADCF40E050E0BA0189EE0E944E1301E402
:1028F000823010F412E009EE80E1E82E87E2F82E33
:1029000090E9C92EDD24D39440E050E0BA01802F35
:102910000E944E138823F1F0C6010197F1F7F1E010
:10292000EF1AF10889F78ACF40E050E0BA018AE750
:102930000E944E13811182CF0E944913F7018193A7
:102940007F010E171F07C1F789811CE086FD77CF35
:1029500014E075CF40E052E060E070E080E50E9456
:102960004E13882309F46BCF69CFCF92DF92EF9299
:10297000FF920F931F93CF93DF937C0169018091A6
:10298000AC0483FD07C089E0440F551F661F771F05
:102990008A95D1F781E50E944E13811108C0C0E4E9
:1029A000DCE90E9449138F3F29F42197D1F7C1E058
:1029B000D0E022C08E3FD9F7C2E0D2E0C01BD10BDD
:1029C000CC19DD0981E0C81AD10818F00E9449131A
:1029D000F9CFE114F10401F10E0D1F1D0E944913FE
:1029E000F70181937F010E171F07C1F70E9449135A
:1029F0002197E1F7D0E0C0E061E084E00E94CE20C2
:102A00000E944913CE01DF91CF911F910F91FF904A
:102A1000EF90DF90CF9008950E9449130150110963
:102A2000D9F7E4CFEF92FF920F931F93CF93DF93E9
:102A30000097C9F0EA018C012097B1F1E090AA0457
:102A4000F090AB04E114F10479F1F80181918F0168
:102A50000E944513F1E0EF1AF108F092AB04E09206
:102A6000AA042197E9CF411551056105710529F1A6
:102A70008091AC0483FD07C089E0440F551F661F99
:102A8000771F8A95D1F788E50E944E1381111DC0EA
:102A90008FEF0E9445138EEF0E94451380E092E075
:102AA0009093AB048093AA0490E080E0DF91CF91F3
:102AB0001F910F91FF90EF900895DF91CF911F919B
:102AC0000F91FF90EF900C94A01381E090E0EECF77
:102AD0000F931F93E091AD04F091AE049B01AC0104
:102AE000225031094109510986819781A085B1851C
:102AF0000297A109B109281739074A075B0778F43B
:102B0000A281B0E00E949325028913892489358926
:102B1000600F711F821F931F1F910F91089560E036
:102B200070E0CB01F9CF0F931F93CF93DF93EC01AC
:102B3000E091AD04F091AE04198218826C817D8120
:102B40008E819F81613071058105910581F106813A
:102B5000178120853185601771078207930738F543
:102B6000611571058105910539F42081233021F427
:102B70006685778580899189688779878A879B8729
:102B8000611571058105910569F00E9468156C87D2
:102B90007D878E879F8790E080E0DF91CF911F91A6
:102BA0000F9108956685778580899189F0CF81E0BE
:102BB00090E0F3CF0F931F93CF93DF9300D000D01B
:102BC000CDB7DEB7623071058105910528F461E06B
:102BD00070E080E090E055C0E091AD04F091AE046B
:102BE0000681178120853185601771078207930759
:102BF00070F7AB01BC018081823031F1833039F74D
:102C00009A012F773327220F331F220F331F97E0AC
:102C100076956795579547959A95D1F782859385CF
:102C2000A485B585480F591F6A1F7B1F04E010E07B
:102C3000CE0101960E94B514892B49F669817A81EB
:102C40008B819C819F701DC09A013327220F331FF7
:102C5000452F562F672F772782859385A485B585C5
:102C6000480F591F6A1F7B1F02E010E0CE0101963A
:102C70000E94B514892B09F0AACF69817A8190E06E
:102C800080E00F900F900F900F90DF91CF911F91E8
:102C90000F910895CF92DF92EF92FF920F931F93BF
:102CA000CF93DF93EC016A017B0102E010E02EEF8D
:102CB00031E00E94B514892B31F5888199818535E1
:102CC0009A4A59F526E330E0B701A601CE010E94E9
:102CD000B514892B29F4888199818634914489F02F
:102CE00002E010E022E530E0B701A601CE010E942B
:102CF000B514892BA1F481E028813981263431442F
:102D000019F480E001C083E0DF91CF911F910F9112
:102D1000FF90EF90DF90CF90089582E0F5CF81E0B3
:102D2000F3CF2F923F924F925F926F927F928F924A
:102D30009F92AF92BF92CF92DF92EF92FF920F934A
:102D40001F93CF93DF93CDB7DEB7A4970FB6F89458
:102D5000DEBF0FBECDBF1C011092AE041092AD04B9
:102D60000E94DC1380FDC3C040E050E0BA01CE01F8
:102D700001960E944A16412C512C32018130C1F536
:102D800000E110E02EEB31E040E050E0BA01CE016E
:102D900001960E94B514892BD9F081E090E0A496A9
:102DA0000FB6F894DEBF0FBECDBFDF91CF911F915C
:102DB0000F91FF90EF90DF90CF90BF90AF909F90DA
:102DC0008F907F906F905F904F903F902F900895DD
:102DD0008D81811103C086E090E0E1CF49845A845F
:102DE0006B847C84B301A201CE0101960E944A1635
:102DF000833099F28111EFCF04E210E02DE030E052
:102E0000B301A201CE0101960E94B514892B29F6C7
:102E10002A853B8550E040E02115310541055105EB
:102E200021F4288D398D4A8D5B8DAC81B0E00E94F4
:102E300093254B015C014A815B8170E060E0440EA8
:102E4000551E661E771EF10142865386648675867E
:102E500029812283CD80DE80D582C4828F819885AE
:102E6000B0E0A0E00097A105B10521F48C899D890F
:102E7000AE89BF8934E0D694C7943A95E1F7F12C36
:102E8000E12C841B950BA60BB70BBC01CD01681977
:102E900079098A099B096C197D098E099F0930E01F
:102EA00050E040E00E946B25DA01C9010296A11DA5
:102EB000B11DF10186839783A087B187265F3F40CC
:102EC000410951092F3F3F4E4105510598F0873F79
:102ED0009F4FA105B10598F47ECF82E0F101808378
:102EE000D301C201880D991DAA1DBB1D0FC082E030
:102EF00090E055CF873F9F4FA105B10570F383E068
:102F0000F101808388A199A1AAA1BBA18687978797
:102F1000A08BB18BC40CD51CE61CF71CC80CD91CAB
:102F2000EA1CFB1CF101C28AD38AE48AF58A118269
:102F30003092AE042092AD0490E080E030CF4F920A
:102F40005F926F927F928F929F92BF92CF92DF9209
:102F5000EF92FF920F931F93CF93DF93CDB7DEB71E
:102F6000EC970FB6F894DEBF0FBECDBFC090AD0496
:102F7000D090AE04C114D10409F40DC1F601118240
:102F80009E012F5C3F4F3CA32BA39C017901F901CB
:102F900080812F5F3F4F8032C9F38F3209F479016E
:102FA0001DA21EA21FA218A6F7018081A0E2BA2EC0
:102FB000803208F0DDC0CE0181960E9493151982FF
:102FC000009709F410C1EC960FB6F894DEBF0FBE5F
:102FD000CDBFDF91CF911F910F91FF90EF90DF90C8
:102FE000CF90BF909F908F907F906F905F904F9009
:102FF000089520E0E0E088E0D8C0E30EF11C81E015
:10300000913208F080E01B968C93CE0181960E944D
:1030100093150097C1F629A13AA12F703327F5E047
:10302000220F331FFA95E1F74DA55EA56FA578A98C
:1030300000E210E0CE0101960E94B514892B19F030
:1030400081E090E0C0CF8981811103C083E090E0EE
:10305000BACF8C8583FD13C00BA11CA19E012F5FED
:103060003F4FD801B801655F7F4F6A177B0709F4AE
:10307000B5C0F90141919F019D914917B1F309A193
:103080001AA10F5F1F4F11F38DA59EA5AFA5B8A97B
:103090000097A105B105D1F298012F703327232B9A
:1030A000D9F48090AD049090AE040196A11DB11D9D
:1030B0008DA79EA7AFA7B8AB69A57AA58BA59CA540
:1030C000F401611571058105910549F484819581AB
:1030D0000817190708F0BACF1AA309A39CCF2281B9
:1030E000E22FE150FF0BAF019801E4E03695279500
:1030F000EA95E1F724233523232B71F70E94DA1593
:10310000623071058105910508F49ACFF40146807B
:10311000578060847184641575058605970508F0ED
:1031200095CF69A77AA78BA79CA70E9468156DA762
:103130007EA78FA798ABD0CF84FF88CFE091AD0456
:10314000F091AE0480818330F1F48D899E89B0E0E6
:10315000A0E0DC01992788274B8D5C8D70E060E052
:10316000842B952BA62BB72B8DA39EA3AFA3B8A71B
:10317000ABA1BCA1FD01CD010B968E179F0709F4F1
:1031800038CFB192FACF80E090E0DC01E5CF80E06B
:1031900090E0DC013DC085E090E015CF883009F07B
:1031A0002CCF9BE0282FE32F892F31E03E0FEE0D2F
:1031B000FF2DF11D9081913208F41FCF9F3209F449
:1031C0001CCF9E3259F3281708F017CFFD01E20FEC
:1031D000F11D9083982F81E0820FE4CFF801938551
:1031E000992309F4A9CF8981882309F42FCF8C85ED
:1031F00084FD2CCFE091AD04F091AE04808183304A
:1032000031F68D899E89B0E0A0E0DC0199278827FE
:103210004B8D5C8D70E060E0842B952BA62BB72B3B
:10322000F601868F978FA0A3B1A38D8D9E8DAF8D54
:10323000B8A1828F938FA48FB58F168A178A108EAC
:10324000118E81E0818390E080E0BDCE4F925F924D
:103250006F927F928F929F92AF92BF92CF92DF92A6
:10326000EF92FF920F931F93CF93DF934C017B015B
:103270003A01C091AD04D091AE04FA0111821082DE
:1032800085E090E0209709F44BC0898180FFAAC0B7
:103290008A8D9B8DAC8DBD8D4E895F89688D798DB2
:1032A000841B950BA60BB70BA70170E060E0841799
:1032B0009507A607B70708F47C015401412C32E0BA
:1032C000532EE114F10409F490C08E899F89A88DD2
:1032D000B98DAC01BD01517066277727452B462B70
:1032E000472B09F04CC0DA80DA94AC01BD0129E02B
:1032F00076956795579547952A95D1F7D42261F52C
:10330000892B8A2B8B2BE9F46E8D7F8D88A199A157
:103310006230710581059105D8F4198281E090E051
:10332000DF91CF911F910F91FF90EF90DF90CF90A1
:10333000BF90AF909F908F907F906F905F904F90D5
:1033400008956AA17BA18CA19DA10E94DA15E0CF0E
:103350006AA37BA38CA39DA36AA17BA18CA19DA141
:103360000E9468156115710581059105B1F26D0D19
:10337000711D811D911D6EA37FA388A799A72E891A
:103380003F893170C201821B930B67018E159F0527
:1033900008F46C014EA15FA168A579A5C50181144F
:1033A000910411F480E090E086010E94B514892B0D
:1033B00009F0B3CF8E899F89A88DB98D8C0D9D1D85
:1033C000A11DB11D8E8B9F8BA88FB98FAC0CBD1C1E
:1033D000EC18FD08F30180819181C80ED91ED182BD
:1033E000C0826FCF84E090E09BCF90E080E098CFE8
:1033F0004F925F926F927F928F929F92AF92BF9205
:10340000CF92DF92EF92FF920F931F93CF93DF93B0
:103410006C018B015A01C091AD04D091AE04FA0148
:103420001182108285E090E02097A1F0898180FFD1
:10343000E0C08074672B29F58823E9F040E050E074
:10344000BA0190E080E00E941215892BA1F0198248
:1034500081E090E0DF91CF911F910F91FF90EF906D
:10346000DF90CF90BF90AF909F908F907F906F90A4
:103470005F904F90089589818F7B898390E080E0F1
:10348000E9CF81110AC08E899F89A88DB98D8827BF
:103490009E7F8E8B9F8BA88FB98F8A8D9B8DAC8DD5
:1034A000BD8D4E895F89688D798D841B950BA60B28
:1034B000B70BA80170E060E084179507A607B7076F
:1034C00008F48C01812C32E0932E01151105B1F224
:1034D0008E899F89A88DB98D9C013170232B09F0AD
:1034E00040C0FA80FA94AC01BD0129E07695679559
:1034F000579547952A95D1F7F42299F4892B8A2B71
:103500008B2B09F06FC06E8D7F8D88A199A16230E1
:1035100071058105910508F49ACF6AA37BA38CA35A
:103520009DA36AA17BA18CA19DA10E946815611534
:1035300071058105910509F48ACFAB01BC014F0DDE
:10354000511D611D711D4EA35FA368A779A790E06F
:1035500080E00E941215892B09F079CF898180645F
:1035600089838E899F8991709401281B390B78017A
:103570002017310708F479012701712C612CB30160
:10358000A701C6010E941215892B09F060CF8E8910
:103590009F89A88DB98D840D951DA61DB71D8E8B95
:1035A0009F8BA88FB98FCE0CDF1C0E191F09F50158
:1035B00020813181E20EF31EF182E0822C01F1E0E4
:1035C0005F22452809F081CF40E050E0BA0190E049
:1035D00080E00E941215892B09F039CF89818F7BF9
:1035E000898373CF6AA17BA18CA19DA10E94DA156A
:1035F0008ECF84E090E02ECF4F925F926F927F92B9
:103600008F929F92AF92BF92CF92DF92EF92FF92F2
:10361000CF93DF9300D000D000D0CDB7DEB720919C
:10362000AD043091AE043E832D832115310509F49C
:103630000CC1D90111962C91119720FF09C15A96FE
:10364000CD90DD90ED90FC905D976C157D058E051D
:103650009F0510F46B017C01ED81FE81468857883F
:10366000608C718C168A178A108E118EC114D10449
:10367000E104F10409F4E6C08280912CB12CA12C64
:1036800039E0880C991CAA1CBB1C3A95D1F741144F
:1036900051046104710409F470C0B1E04B1A51087F
:1036A00061087108C701B60161507109810991096A
:1036B000A50194010E946B2529833A834B835C8387
:1036C000C301B201A50194010E946B2589819A81F1
:1036D000AB81BC8182179307A407B50708F44DC0DE
:1036E00088279927DC0188199909AA09BB0984212F
:1036F0009521A621B721ED81FE81868B978BA08F26
:10370000B18FC81AD90AEA0AFB0A62A173A184A17F
:1037100095A18C149D04AE04BF0408F058C00E940B
:10372000DA15623071058105910568F0AD81BE81C1
:1037300016964D905D906D907C9019976415750567
:103740008605970540F1ED81FE81118281E090E0D0
:1037500026960FB6F894DEBF0FBECDBFDF91CF9196
:10376000FF90EF90DF90CF90BF90AF909F908F90A1
:103770007F906F905F904F900895AD81BE815E966F
:103780006D917D918D919C919197FD0162A373A3A1
:1037900084A395A3BECFAD81BE8192966D937D9398
:1037A0008D939C93959756964D905D906D907C90DF
:1037B0005997480C591C6A1C7B1CFD01468A578A84
:1037C000608E718EC818D908EA08FB08A2CFAD81B7
:1037D000BE8156968D909D90AD90BC905997C80C27
:1037E000D91CEA1CFB1CFD01C68AD78AE08EF18E2B
:1037F0000E946815AB01BC014115510561057105B9
:1038000029F4AD81BE8111961C92A0CFED81FE817D
:1038100082818150990B092E000CAA0BBB0B29E069
:10382000F694E794D794C7942A95D1F78C219D21DB
:10383000AE21BF21480F591F6A1F7B1F46A357A304
:1038400060A771A790E080E083CF85E090E080CF13
:1038500084E090E07DCF90E080E008958091E304E3
:103860009091E404891B990B08959091E404809150
:10387000E3042FEF3FEF981748F4E92FF0E0EB5106
:10388000FB4F208130E09F5F9093E404C9010895CD
:10389000E091E4048091E304E81730F4F0E0EB51A8
:1038A000FB4F808190E008958FEF9FEF089508957A
:1038B000CF93DF93EC01E091BB04F091BC0430970F
:1038C000F1F09091E4048091E3049817C0F090E047
:1038D000292F30E02617370754F4DE01A20FB31F5B
:1038E0004C912B513B4FD9014C939F5FF1CF1092DC
:1038F000E4046093E304CB01DF91CF910994DF915D
:10390000CF910895E091BD04F091BE04309729F065
:103910001092C1041092C00409940895CF93DF93CC
:103920001F92CDB7DEB769832091BF042223F9F03F
:103930002091C004203258F021E030E0FC013383B4
:10394000228390E080E00F90DF91CF9108958091E5
:10395000C104E82FF0E0EE53FB4F998190838F5F15
:103960008093C1048093C00481E090E0ECCF61E0DB
:10397000CE0101960E94441EF7CFCF92DF92EF92C4
:10398000FF920F931F93CF93DF937C01CB018A01AA
:103990002091BF04222389F0EB016B01C40ED51ED8
:1039A000CC15DD0569F06991D701ED91FC9101908D
:1039B000F081E02DC7010995F3CF642F0E94441ECA
:1039C000C801DF91CF911F910F91FF90EF90DF9091
:1039D000CF9008951092E4041092E3041092C10471
:1039E0001092C0040E94951D82E89CE10E94701E06
:1039F00088E59CE10C946B1E81E08093BF0460938A
:103A0000E2041092C1041092C00408950C94FC1CAE
:103A10000F93062F21E04091C00462EC74E0809186
:103A2000E2040E94F01D1092C1041092C004109292
:103A3000BF040F9108954F925F926F927F92AF9261
:103A4000BF92CF92EF92FF920F931F93CF93DF938A
:103A50005C01F62ED42F28013901EE2019F10E94C5
:103A6000FC1CCE2DC43008F0C3E0C150B8F028E0F3
:103A7000C29FC0011124A301920104C0569547952D
:103A8000379527958A95D2F7B901D501ED91FC912B
:103A90000190F081E02DC5010995E7CF60E0C501F7
:103AA0000E94081D4D2FD13208F040E22C2D65EE0A
:103AB00074E08F2D0E94AB1D1092E4048093E30408
:103AC000DF91CF911F910F91FF90EF90CF90BF901A
:103AD000AF907F906F905F904F900895CF92EF924C
:103AE0000F931F93C22EE12C00E010E098010E947A
:103AF0001B1D1F910F91EF90CF90089521E00C9422
:103B00006E1D61E00C94081DEFEAF4E0138212824E
:103B100088EE93E0A0E0B0E084839583A683B7832A
:103B200088E094E09183808308951092720581E08B
:103B30008093700510926F0561E081E10E94CE20B4
:103B400061E080E10E94CE200898099888E480B95D
:103B500085E486BF0895413208F040C09091720517
:103B60009111FCCF91E090937205209370052FEF97
:103B70002093050510924A05240F20934905909340
:103B8000710590917105880F892B80937105809143
:103B90006F058130F1F410926F058091710583B942
:103BA00006B603FCFACF85EC86BF809172058130A2
:103BB000E1F380914A05841710F440914A05ABE483
:103BC000B5E0962FFB018E2F891B841720F0842FE0
:103BD000089585EEE9CF8D918193F5CF40E0F7CF41
:103BE0000F93413208F048C0909172059111FCCFBB
:103BF00092E090937205009370059FEF90930505F6
:103C000010924A0540934905362FABE4B5E0FB011D
:103C10009E2F931B941758F1109271059091710586
:103C2000880F892B8093710580916F05813011F584
:103C300010926F058091710583B906B603FCFACF27
:103C400085EC86BF222321F0809172058230D1F36A
:103C5000809105058F3F91F080910505803281F0BC
:103C600080910505803371F084E00F910895919162
:103C70009D93CECF85EEE5CF81E0F7CF80E0F5CF05
:103C800082E0F3CF83E0F1CF20912705260F332781
:103C9000331F21323105ECF420917205FC0190E0D4
:103CA00080E0243069F082E00895A09127052191F9
:103CB000AC01475D5A4FA40FB52FB11D2C9301964F
:103CC000861798F380912705680F6093270580E099
:103CD000089581E0089590936C0580936B05089595
:103CE00090936E0580936D05089585ED86BF06B6A9
:103CF00004FCFDCF10927205089585EC86BF1092EA
:103D0000720508951F920F920FB60F9211242F93F0
:103D10003F934F935F936F937F938F939F93AF9353
:103D2000BF93EF93FF9381B1887F803609F44CC035
:103D300008F03FC0883209F4A4C018F5803109F4B6
:103D40009AC0B8F4882309F4F2C0883009F493C00B
:103D5000FF91EF91BF91AF919F918F917F916F9163
:103D60005F914F913F912F910F900FBE0F901F9039
:103D70001895883109F485C0803251F78093050584
:103D800015C0803409F499C048F48033B9F38833FE
:103D9000F9F6809305050E947D1EDACF803509F47F
:103DA00081C0883509F491C0883491F60E94751E4F
:103DB000CFCF883909F487C030F5883729F050F41F
:103DC000883611F0803721F683E0809372051092D7
:103DD000060554C0883809F476C0803919F0803857
:103DE00009F0B6CF80910605803208F06CC0E091F2
:103DF000060581E08E0F8093060583B1F0E0E95F50
:103E0000FA4F80833BC0803B39F0E0F4803A09F4FC
:103E100073C0883A09F09CCF84E0809372051092B9
:103E2000280510922705E0916D05F0916E05099522
:103E30008091270581110FC081E0809327051092A2
:103E4000290509C0803C09F470C0883C09F46DC0A4
:103E5000883B09F07DCFE091280581E08E0F8093AB
:103E60002805F0E0E75DFA4F808183B9909128053D
:103E70008091270526C08091710583B985EC86BFA6
:103E800067CF90914A0580914905981748F5E091D0
:103E90004A0581E08E0F80934A05F0E0E55BFA4F1A
:103EA0008081EBCFE0914A0581E08E0F80934A0537
:103EB00083B1F0E0E55BFA4F808390914A058091F1
:103EC00049059817D8F285E8DACFE0914A0581E0F4
:103ED0008E0F80934A0583B1F0E0E55BFA4F808353
:103EE00080917005811162CF81E080936F0584EA33
:103EF00086BF109272052CCF0E947D1E8091060510
:103F0000803230F4E0910605F0E0E95FFA4F10826C
:103F10006091060570E0E0916B05F0916C0587E01B
:103F200095E009951092060513CF85ECE1CF10922C
:103F300005053CCF1F920F920FB60F9211242F93BD
:103F40003F938F939F93AF93BF9380917805909108
:103F50007905A0917A05B0917B053091770523E032
:103F6000230F2D3768F126E8230F0296A11DB11DFE
:103F7000209377058093780590937905A0937A052F
:103F8000B0937B058091730590917405A0917505A0
:103F9000B09176050196A11DB11D80937305909394
:103FA0007405A0937505B0937605BF91AF919F916D
:103FB0008F913F912F910F900FBE0F901F901895EA
:103FC0000196A11DB11DD4CF2FB7F894609178054B
:103FD0007091790580917A0590917B052FBF0895A6
:103FE0003FB7F8948091730590917405A091750581
:103FF000B091760522B708B600FE05C02F3F19F034
:104000000196A11DB11D3FBFBA2FA92F982F882758
:10401000BC01CD01620F711D811D911D42E0660F33
:10402000771F881F991F4A95D1F708958F929F9205
:10403000AF92BF92CF92DF92EF92FF926B017C0121
:104040000E94F01F4B015C01C114D104E104F10492
:10405000E9F00E944A250E94F01F681979098A092F
:104060009B09683E73408105910570F321E0C21AF7
:10407000D108E108F10888EE880E83E0981EA11CA3
:10408000B11CC114D104E104F10429F7FF90EF90B1
:10409000DF90CF90BF90AF909F908F900895823027
:1040A000910538F0880F991F880F991F0597019780
:1040B000F1F70895789483B7836083BF83B78864EA
:1040C00083BF89B7816089BF82E08EBD8EB5816074
:1040D0008EBD8FB581608FBD85B5846085BD85B58A
:1040E000806485BD87E886B91AB80895843059F090
:1040F00028F4813099F0823089F00895853039F0C4
:10410000873041F008958FB58F778FBD08958FB5B3
:104110008F7DFBCF85B58F7D85BD089583B78F7D5E
:1041200083BF0895CF93DF9390E0FC01E058FA4FEE
:10413000249180569A4FFC0184918823C9F090E025
:10414000880F991FFC01EC52FA4FA591B491FC0124
:10415000E653FA4FC591D49161110DC09FB7F89401
:104160008C91209582238C938881282328839FBF5C
:10417000DF91CF910895623051F49FB7F8943C914C
:10418000822F809583238C93E8812E2BEFCF8FB7DE
:10419000F894EC912E2B2C938FBFEACF1F93CF93E3
:1041A000DF93282F30E0F901E05AFA4F8491F901AA
:1041B000E058FA4FD491F901E056FA4FC491CC235C
:1041C000A9F0162F81110E947620EC2FF0E0EE0F5F
:1041D000FF1FE653FA4FA591B4918FB7F894EC9175
:1041E000111108C0D095DE23DC938FBFDF91CF91F2
:1041F0001F910895DE2BF8CFCF93DF93282F30E067
:10420000F901E05AFA4F8491F901E058FA4FD4913C
:10421000F901E056FA4FC491CC23A1F081110E941C
:104220007620EC2FF0E0EE0FFF1FE054FA4FA5913F
:10423000B491EC91ED2381E090E009F480E0DF910E
:10424000CF91089580E090E0FACFFC01918D228D0E
:10425000892F90E080589F4F821B91098F77992773
:104260000895FC01918D828D981731F0828DE80FB1
:10427000F11D858D90E008958FEF9FEF0895FC016B
:10428000918D828D981761F0A28DAE0FBF2FB11D59
:104290005D968C91928D9F5F9F77928F90E00895AD
:1042A0008FEF9FEF0895FC01538D448D252F30E053
:1042B000842F90E0821B930B541710F0CF96089533
:1042C0000197089589EA92E2892B49F080E090E015
:1042D000892B29F00E94A92281110C9400000895D5
:1042E000FC01A48DA80FB92FB11DA356BF4F2C916F
:1042F000848D90E001968F739927848FA689B78962
:104300002C93A089B1898C9180648C93938D848D3A
:10431000981306C00288F389E02D80818F7D808309
:104320000895CF93DF93EC01888D8823B9F0AA8993
:10433000BB89E889F9898C9185FD03C0808186FD60
:104340000DC00FB607FCF7CF8C9185FFF2CF8081AF
:1043500085FFEDCFCE010E947021E9CFDF91CF9193
:104360000895EF92FF920F931F93CF93DF93EC0189
:1043700081E0888F9B8D8C8D981316C0E889F98910
:10438000808185FF11C0EE89FF896083E889F98902
:1043900080818064808381E090E0DF91CF911F91E4
:1043A0000F91FF90EF900895F62E0B8D10E00F5FA8
:1043B0001F4F0F731127E02E8C8D8E110CC00FB67E
:1043C00007FCFACFE889F989808185FFF5CFCE0116
:1043D0000E947021F1CFEB8DEC0FFD2FF11DE35604
:1043E000FF4FF0820B8FEA89FB8980818062D2CFF8
:1043F000CF92DF92EF92FF921F93CF93DF93EC0166
:104400006A017B01122FE889F98982E08083C11457
:1044100081EED806E104F104A1F060E079E08DE3DB
:1044200090E0A70196010E946B25215031094109B6
:1044300051095695479537952795211580E13807FD
:1044400098F0E889F989108260E874E88EE190E0DC
:10445000A70196010E946B2521503109410951099C
:104460005695479537952795EC85FD853083EE85E4
:10447000FF852083188E1068EC89FD891083EA89F6
:10448000FB89808188698083EA89FB8980818F7DAF
:104490008083DF91CF911F91FF90EF90DF90CF90BD
:1044A00008951F920F920FB60F9211242F938F939E
:1044B0009F93EF93FF93E0918C05F0918D058081A0
:1044C000E0919205F091930582FD1BC0908180914F
:1044D00095058F5F8F7720919605821741F0E091C7
:1044E0009505F0E0E458FA4F958F80939505FF917C
:1044F000EF919F918F912F910F900FBE0F901F9072
:1045000018958081F4CF1F920F920FB60F9211244D
:104510002F933F934F935F936F937F938F939F93CB
:10452000AF93BF93EF93FF938CE795E00E947021C8
:10453000FF91EF91BF91AF919F918F917F916F917B
:104540005F914F913F912F910F900FBE0F901F9051
:1045500018958CE795E00E94252121E0892B09F42C
:1045600020E0822F0895ECE7F5E01382128288EEB6
:1045700093E0A0E0B0E084839583A683B7838AE1CB
:1045800094E09183808380E490E09587848729E29A
:1045900030E0378726872BE230E0318B208B2AE210
:1045A00030E0338B228B958B848B8CE290E0978B61
:1045B000868B118E128E138E148E0895AF92BF9239
:1045C000CF92DF92EF92FF920F931F93CF93DF93DF
:1045D0006C017B018B01040F151FEB015E01AE180E
:1045E000BF08C017D10759F06991D601ED91FC9130
:1045F0000190F081E02DC6010995892B79F7C5015D
:10460000DF91CF911F910F91FF90EF90DF90CF90AE
:10461000BF90AF900895FB0101900020E9F731971A
:10462000AF01461B570BDC01ED91FC910280F38139
:10463000E02D0994EF92FF920F931F93CF93DF9396
:104640008C017B01D0E0C0E0F701EC0FFD1F64910D
:10465000662361F0D801ED91FC910190F081E02D8D
:10466000C8010995892B11F02196EECFCE01DF917B
:10467000CF911F910F91FF90EF90089561157105F3
:1046800011F00C940B2390E080E00895DC01ED9193
:10469000FC910190F081E02D099465EF73E00C949A
:1046A0000B230F931F93CF93DF93EC010E941A23E8
:1046B0008C01CE010E944D23800F911FDF91CF917D
:1046C0001F910F9108950F931F93CF93DF938C0148
:1046D000D0E0C0E06115710519F00E940B23EC01D8
:1046E000C8010E944D238C0F9D1FDF91CF911F9118
:1046F0000F9108950F931F93CF93DF93EC010E94C6
:1047000046238C01CE010E944D23800F911FDF9123
:10471000CF911F910F9108958F929F92AF92BF9268
:10472000EF92FF920F931F93CF93DF93CDB7DEB736
:10473000A1970FB6F894DEBF0FBECDBF7C01FA0182
:10474000CB0119A2223008F42AE08E010F5D1F4F21
:10475000822E912CB12CA12CBF01A50194010E94A5
:104760006B25F901CA016A300CF5605DD8016E93C2
:104770008D01232B242B252B79F790E080E01097D7
:1047800021F0BD01C7010E940B23A1960FB6F8943A
:10479000DEBF0FBECDBFDF91CF911F910F91FF9074
:1047A000EF90BF90AF909F908F900895695CDECF9F
:1047B000CF92DF92EF92FF920F931F93CF93DF93ED
:1047C0002115310581F4DC01ED91FC910190F0811E
:1047D000E02D642FDF91CF911F910F91FF90EF900B
:1047E000DF90CF9009942A30310501F52AE077FF58
:1047F0001DC06A017B01EC016DE20E9446238C0121
:1048000044275527BA014C195D096E097F092AE032
:10481000CE010E948C23800F911FDF91CF911F91B9
:104820000F91FF90EF90DF90CF900895DF91CF919F
:104830001F910F91FF90EF90DF90CF900C948C23FD
:104840009A01AB01770F660B770B0C94D8232115D7
:10485000310541F4DC01ED91FC910190F081E02DF6
:10486000642F09940C948C239A01462F50E070E039
:1048700060E00C942724FC01808191810C945D26DA
:10488000CF93DF93EC0188819981009711F00E940A
:104890005D26198218821D821C821B821A82DF917A
:1048A000CF9108950F931F93CF93DF93EC018B016A
:1048B0006F5F7F4F888199810E94E626009751F0B3
:1048C000998388831B830A8381E0DF91CF911F91B5
:1048D0000F91089580E0F9CFCF93DF93EC018881A9
:1048E0009981892B49F08A819B818617970720F04F
:1048F00081E0DF91CF910895CE010E945224882358
:10490000C1F38C819D81892B99F7E881F98110820F
:10491000EFCFEF92FF920F931F93CF93DF93EC01B2
:104920007B018A01BA010E946C2481110BC0CE0167
:104930000E944024CE01DF91CF911F910F91FF90F3
:10494000EF9008951D830C83B701888199810E949F
:10495000D327F0CFFC0111821082138212821582BC
:1049600014826115710551F0FB0101900020E9F7F7
:104970003197AF01461B570B0C9489240895FB0116
:1049800001900020E9F73197AF01461B570B0C94BB
:104990008924CF93DF93EC016115710531F00E94FA
:1049A000BF24CE01DF91CF9108950E944024F9CF1A
:1049B000FC01248135816217730748F4808191815D
:1049C000009729F0860F971FFC018081089580E0F1
:1049D0000895AF92BF92CF92DF92EF92FF920F9322
:1049E0001F93CF93DF935C016B017A018901241738
:1049F000350720F48F2D7901042F182F67EF73E00E
:104A0000C5010E94AA24D6011496CD91DC91EC1622
:104A1000FD06C8F40C171D0708F4E801D601ED9156
:104A2000FC911197EC0FFD1F108110826D917C910C
:104A30006E0D7F1DC5010E94C924F6018081918100
:104A4000C80FD91F1883C501DF91CF911F910F9116
:104A5000FF90EF90DF90CF90BF90AF900895FC0152
:104A600080819181009711F00C94A32760E070E0A1
:104A7000CB01089508950E945A200E943A250E9471
:104A8000080BC2E6D1E20E947C0F2097E1F30E945E
:104A90006221F9CF0895991B79E004C0991F9617F8
:104AA00008F0961B881F7A95C9F78095089597FBA3
:104AB000072E16F4009407D077FD09D00E949E259A
:104AC00007FC05D03EF4909581959F4F0895709511
:104AD00061957F4F0895A1E21A2EAA1BBB1BFD0111
:104AE0000DC0AA1FBB1FEE1FFF1FA217B307E407CD
:104AF000F50720F0A21BB30BE40BF50B661F771F25
:104B0000881F991F1A9469F7609570958095909504
:104B10009B01AC01BD01CF010895EE0FFF1F059071
:104B2000F491E02D09940E94B225A59F900DB49FA9
:104B3000900DA49F800D911D11240895AA1BBB1BED
:104B400051E107C0AA1FBB1FA617B70710F0A61B8D
:104B5000B70B881F991F5A95A9F780959095BC01AE
:104B6000CD010895A29FB001B39FC001A39F700D16
:104B7000811D1124911DB29F700D811D1124911D65
:104B800008950F931F93CF93DF938230910510F414
:104B900082E090E0E0915B06F0915C0630E020E07E
:104BA000B0E0A0E0309799F42115310509F44AC02E
:104BB000281B390B24303105D8F58A819B8161157A
:104BC000710589F1FB0193838283FE0111C040814D
:104BD00051810281138148175907E0F0481759079E
:104BE00099F4109761F012960C93129713961C93F8
:104BF0003296CF01DF91CF911F910F9108950093CD
:104C00005B0610935C06F4CF2115310551F0421775
:104C1000530738F0A901DB019A01BD01DF01F8015A
:104C2000C1CFEF01F9CF90935C0680935B06CDCFA7
:104C3000FE01E20FF31F81939193225031093983D2
:104C40002883D7CF2091590630915A06232B41F45F
:104C5000209162003091630030935A0620935906E8
:104C600020916000309161002115310541F42DB78C
:104C70003EB74091640050916500241B350BE091D4
:104C80005906F0915A06E217F307A0F42E1B3F0BCA
:104C90002817390778F0AC014E5F5F4F24173507AE
:104CA00048F04E0F5F1F50935A0640935906819368
:104CB00091939FCFF0E0E0E09CCFCF93DF930097FC
:104CC000E9F0FC01329713821282A0915B06B09149
:104CD0005C06ED0130E020E01097A1F420813181E5
:104CE000820F931F2091590630915A0628173907D1
:104CF00009F061C0F0935A06E0935906DF91CF9115
:104D00000895EA01CE17DF07E8F54A815B819E012D
:104D100041155105B1F7E901FB83EA8349915991A6
:104D2000C40FD51FEC17FD0761F4808191810296B5
:104D3000840F951FE90199838883828193819B83E6
:104D40008A83F0E0E0E012968D919C911397009792
:104D5000B9F52D913C911197CD010296820F931FC9
:104D60002091590630915A062817390739F630979D
:104D700051F510925C0610925B06B0935A06A09310
:104D80005906BCCFD383C28340815181840F951FC4
:104D9000C817D90761F44E5F5F4F88819981480F2A
:104DA000591F518340838A819B819383828321157C
:104DB000310509F0B0CFF0935C06E0935B069ECF1F
:104DC000FD01DC01C0CF13821282D7CFB0E0A0E09A
:104DD000ECEEF6E20C9406288C01009751F4CB011E
:104DE0000E94C1258C01C801CDB7DEB7E0E10C946B
:104DF0002228FC01E60FF71F9C0122503109E2171F
:104E0000F30708F49DC0D901CD91DC911197C61725
:104E1000D70798F0C530D10530F3CE010497861737
:104E2000970708F3C61BD70B2297C193D1936D93B5
:104E30007C93CF010E945D26D6CF5B01AC1ABD0AE0
:104E40004C018C0E9D1EA0915B06B0915C06512C0E
:104E5000412CF12CE12C109731F58091590690915D
:104E60005A068815990509F05CC04616570608F0E1
:104E700058C08091600090916100009741F48DB717
:104E80009EB74091640050916500841B950BE81714
:104E9000F90708F055C0F0935A06E0935906F90156
:104EA00071836083A0CF8D919C91119712966C9025
:104EB000129713967C901397A815B90559F56C01B4
:104EC00042E0C40ED11CCA14DB0420F1AC014A1923
:104ED0005B09DA011296159780F062827382518322
:104EE0004083D9016D937C93E114F10471F0D701F3
:104EF0001396FC93EE93129776CF22968C0F9D1FFC
:104F0000F90191838083F301EFCFF0935C06E09386
:104F10005B0669CF4816590608F42C017D01D301C0
:104F20009ACFCB010E94C1257C01009749F0AE01C8
:104F3000B8010E94CA27C8010E945D26870153CF8D
:104F400010E000E050CF1F93FC0199278827BC0197
:104F5000E89411911032E9F3193010F01E30C8F3C3
:104F60001B3251F01D3249F4689406C00E94DA27C2
:104F7000610F711D811D911D119110531A30B0F3F5
:104F80003EF490958095709561957F4F8F4F9F4F20
:104F90001F910895FB01DC0102C001900D92415068
:104FA0005040D8F70895FB01DC0101900D920020DC
:104FB000E1F70895592F482F372F262F660F771FB7
:104FC000881F991F660F771F881F991F620F731F15
:104FD000841F951F660F771F881F991F0895E199F9
:104FE000FECF9FBB8EBBE09A99278DB30895262FE5
:104FF000E199FECF9FBB8EBB2DBB0FB6F894E29A12
:10500000E19A0FBE019608952F923F924F925F92C0
:105010006F927F928F929F92AF92BF92CF92DF92C8
:10502000EF92FF920F931F93CF93DF93CDB7DEB72D
:10503000CA1BDB0B0FB6F894DEBF0FBECDBF0994C1
:105040002A88398848885F846E847D848C849B8418
:10505000AA84B984C884DF80EE80FD800C811B8126
:10506000AA81B981CE0FD11D0FB6F894DEBF0FBE55
:10507000CDBFED01089512E0C2EFD2E004C0FE0101
:105080000E948D252196C33FD107C9F7F894FFCF21
:1050900000005D068000134453784E414D2E44417C
:1050A00054004453784E79792E44534B00FF30001E
:1050B0000D0A0A494F533A205265616420427573C4
:1050C000204379636C652074696D656F7574000D9C
:1050D0000A0A494F533A20556E65787065637465C6
:1050E0006420627573207374617465000D0A494F02
:1050F000533A205344206572726F72200044495322
:105100004B5F455252004E4F545F52454144590047
:105110004E4F5F46494C45004E4F545F4F50454EF1
:105120004544004E4F545F454E41424C4544004E6D
:105130004F5F46494C4553595354454D00554E4BCE
:105140004E4F574E00206F6E20004D4F554E54006D
:105150004F50454E00524541440057524954450076
:105160005345454B00206F7065726174696F6E0026
:10517000202D2046696C653A20004469736B2053EA
:105180006574200031323A34363A3437004665626D
:105190002020342032303233002F000A494F533A56
:1051A00020525443206D616E75616C207365747478
:1051B000696E673A000A507265737320542F552048
:1051C000746F20696E6372656D656E74202B31306B
:1051D0002F2B31206F7220435220746F2061636344
:1051E0006570740059656172202D3E20004D6F6E10
:1051F0007468202D3E200020202020202020202008
:10520000202020200020446179202D3E2000486F7E
:10521000757273202D3E20004D696E757465732084
:105220002D3E20005365636F6E6473202D3E200079
:10523000202E2E2E646F6E65202020202020004915
:105240004F533A2052544320646174652F74696D42
:10525000652075706461746564202800494F533A75
:1052600020466F756E6420525443204453333233CA
:1052700031204D6F64756C65202800494F533A20EA
:10528000525443204453333233312074656D70657A
:105290007261747572652073656E736F723A200067
:1052A0004300494F533A2052544320636C6F636B61
:1052B000206661696C75726521000A446F20796F00
:1052C000752077616E742073657420525443206199
:1052D0007420494F5320636F6D70696C6520746949
:1052E0006D65202800293F205B592F4E5D203E0030
:1052F000494F533A205254432073657420617420FF
:10530000636F6D70696C652074696D65202D204E2A
:105310006F773A2000340038004D487A004F4E0035
:105320004F4646000D0A20363A204368616E676595
:1053300020004D487A2900456E74657220796F759A
:10534000722063686F696365203E0020204F6B0008
:105350000D202D3E00494C4F414438302E42494EDD
:10536000004155544F424F4F542E42494E00415533
:105370003830424F4F542E42494E0043504D323246
:105380002E42494E0043504D38362E42494E004D74
:1053900053444F532E42494E00494F533A204C6FCD
:1053A0006164696E6720626F6F742070726F6772DC
:1053B000616D202800292E2E2E00494F533A204C93
:1053C0006F6164696E6720626F6F742070726F67BF
:1053D00072616D2E2E2E0020446F6E65005357496A
:1053E00054434838302E42494E00494F533A2056D4
:1053F0003230204350552069732072756E6E696E8D
:10540000672066726F6D206E6F770D0A000D0A4976
:105410004F533A204350552048414C542064657402
:1054200065637465640D0A001F1C1F1E1F1E1F1F6D
:105430001E1F1E1F000000008E1CBD1C2B1C571CB5
:105440002E1C351C481C00000000B121DE22532117
:08545000912125213F213121AA
:107E000001C0B2C011248FE598E09EBF8DBF84B73A
:107E1000882361F0982F9A70923041F081FF02C060
:107E200097EF94BF282E80E0BAD0EAC085E08EBDDF
:107E300082E08BB988E18AB986E880BD80E189B9A2
:107E40008EE0ADD0B89A84E020E33CEF44E051E00E
:107E50003DBD2CBD48BF08B602FEFDCF98B39527A7
:107E600098BBA8955F9902C0815091F791D0813459
:107E700079F48ED0182F97D0123811F480E004C016
:107E800088E0113809F083E07FD080E17DD0EECF2B
:107E9000823419F484E18FD0F8CF853411F485E071
:107EA000FACF853541F474D0C82F72D0D82FCC0FBB
:107EB000DD1F79D0EACF863519F484E07CD0DECF9F
:107EC000843699F565D064D0182F62D0D82E012F52
:107ED00090E6E92EF12C57018FEFA81AB80A58D076
:107EE000F701808301507501B1F75DD0F5E4DF1231
:107EF00001C0FFCF50E040E063E0CE0135D07E010D
:107F000080E6C82ED12CF601419151916F0161E0BC
:107F1000C7012AD0F2E0EF0EF11C1250A1F750E099
:107F200040E065E0CE0120D0B0CF843771F430D08E
:107F30002FD0F82E2DD037D08E01F80185918F01EA
:107F400023D0FA94F110F9CFA0CF853739F42BD094
:107F50008EE11AD085E918D082E096CF813509F0FC
:107F6000A8CF88E01CD0A5CFFC010A0167BFE89527
:107F7000112407B600FCFDCF667029F0452B19F4DB
:107F800081E187BFE89508955D9BFECF8CB9089588
:107F90005F9BFECF5C9901C0A8958CB1089598E1D4
:107FA00091BD81BD0895F4DF803219F088E0F7DFDC
:107FB000FFCF84E1E9CFCF93C82FEADFC150E9F7C3
:047FC000CF91F1CF9D
:027FFE00000879
:00000001FF
