:020000040000FA
:100000000C94E1020C9409030C9409030C94090369
:100010000C9409030C9409030C9409030C94090330
:100020000C9409030C9409030C9409030C94D31E3B
:100030000C9409030C948A210C94BC210C940903A0
:100040000C9409030C9409030C9409030C94BB1D34
:100050000C940903494F533A20436865636B20535E
:100060004420616E642070726573732061206B653B
:100070007920746F207265706561740D0A000D0A35
:100080000A494F533A20456D7074792066696C6552
:10009000202D204C6F61642061626F727465642151
:1000A000000D0A0A494F533A204F76657272756EF9
:1000B000206572726F72202D204C6F616420616226
:1000C0006F727465642100494F533A204375727210
:1000D000656E742000202020202020202020202059
:1000E0002020202020200D000D0A507265737320FF
:1000F000435220746F206163636570742C204553F4
:100100004320746F2065786974206F7220616E7966
:10011000206F74686572206B657920746F20636846
:10012000616E67650020393A204368616E6765201B
:100130005254432074696D652F64617465002038E2
:100140003A204368616E67652043502F4D2041750A
:10015000746F6578656320282D3E0020373A204370
:1001600068616E67652056323020636C6F636B2068
:10017000737065656420282D3E0020353A204C6F51
:100180006164204F532066726F6D200020343A2046
:100190004175746F626F6F742D38300020333A20D0
:1001A0004175746F626F6F740020323A20694C6F32
:1001B00061642D38300020313A20694C6F61640051
:1001C00020303A204E6F206368616E6765202800FA
:1001D000494F533A2053656C65637420626F6F74A6
:1001E000206D6F6465206F722073797374656D2064
:1001F000706172616D65746572733A0D0A00494FE2
:10020000533A2043502F4D204175746F65786563D4
:100210002069732000494F533A20466F756E642061
:10022000475045204F7074696F6E00494F533A2014
:1002300056323020636C6F636B2073657420617479
:1002400020000D0A0A5632302D4D4243202D204108
:100250003235303232300D0A494F53202D20492F8C
:100260004F2053756273797374656D202D2053325E
:1002700036303332302D523236303832305F4445EA
:1002800056454C310D0A008902EB1E0000000000AB
:10029000000000000000000000000000000000005E
:1002A000000000000000000000BC10FD8CC88ED8CB
:1002B0008ED0BB65FDE82102E86102E8E200B0FFF4
:1002C00038F8751138D8750DBBECFDE80B02BB9BF7
:1002D000FDE80502F453BBECFDE8FD01BB88FDE839
:1002E000F7018CCBE80302B03AE83D025BE8FA0183
:1002F000E82902E82602E4013CFF75FAFFE3694CB5
:100300006F6164202D20496E74656C2D48657820DE
:100310004C6F61646572202D2053323030323230A0
:10032000005374617274696E67204164647265730E
:10033000733A20004C6F6164206572726F72202DD9
:100340002053797374656D2068616C74656400571F
:10035000616974696E6720696E7075742073747258
:1003600065616D2E2E2E0053796E74617820657252
:10037000726F722100436865636B73756D206572DF
:10038000726F722100694C6F61643A2000416464AD
:10039000726573732076696F6C6174696F6E21008A
:1003A000505251B9FFFFBBB6FDE82D01E86D01E8E1
:1003B00082013C0D74F93C0A74F53C2074F1E800AC
:1003C00001E865013C3A754DE8BB0088C6B200E81B
:1003D000A400E8A400B0FF38E8750638C8750289A3
:1003E000D988F8E8900088D8E88B00E89800E8857C
:1003F000003C017532E88E00E87B0088D020C07494
:100400006CE81801BBECFDE8CF00BBDCFDE8C900DF
:10041000B9FFFFEB58E80401BBECFDE8BB00BBCE25
:10042000FDE8B500B9FFFF88F020C0742EE8560043
:10043000E84300535120C0B9F0FC29CB595B72143A
:10044000E8D900BBECFDE89000BBF4FDE88A00B9F8
:10045000FFFFEB19880743FECEEBCCE82800E81538
:100460000088D020C0759AE8B200E942FFE8AC00ED
:1004700089CB595A58C328C2C350E8090088C7E835
:10048000040088C358C351E80D00B104D2C088C429
:10049000E8040008E059C3E89A00E82400E80900ED
:1004A00073F5E82900E86400C33C477201C33C309F
:1004B0007302F8C33C3A7301C33C417302F8C3F9B9
:1004C000C33C617301C33C7B7201C3245FC33C3AEC
:1004D00072022C072C30240FC350538A073C00743F
:1004E00006E8450043EBF45B58C3535088F8E8082E
:1004F0000088D8E80300585BC3505188C4B104D2C7
:10050000C8E8080088E0E803005958C350240F04E5
:10051000303C3A72020407E80F0058C350B00DE8AF
:100520000700B00AE8020058C388C4B001E6018899
:10053000E0E600C3E4013CFF74FAC30000000200DF
:10054000000000000000000504000700000000009B
:10055000000000000000000000000001020408107C
:10056000204080010204081020408001020408108D
:100570002040800102040810204080020202020292
:100580000202020404040404040404030303030336
:1005900003030301010101010101010000390036DB
:1005A000003300300000003B00380035003200000E
:1005B000003A00370034003100001405BD1CEC2166
:1005C000200511241FBECFE5D8E0DEBFCDBF14E06B
:1005D000A0E6B0E0E2E0FFE402C005900D92A83290
:1005E000B107D9F726E0A8E2B4E001C01D92AB3113
:1005F000B207E1F712E0C0EED2E004C02197FE019D
:100600000E94C624CD3DD107C9F70E9474240C94E2
:1006100074270C9400001F93CF93DF93EC01162FE7
:100620000E942827181739F0612FCE01DF91CF9152
:100630001F910C943027DF91CF911F9108950C9456
:100640002827DC01ED91FC910190F081E02D0994C7
:100650000F931F93CF93DF93EC010E941D1F08811E
:1006600019812A813B81601B710B820B930B693CC2
:1006700071058105910580F080E00E94352061E0E0
:10068000892B09F060E080E00E9407200E941D1F76
:10069000688379838A839B83DF91CF911F910F9128
:1006A00008956AE00E9484248295807F890F0895CE
:1006B000982F92959F708F702AE0929F800D112441
:1006C0000895CF93C82F8A3030F46EE770E08AE740
:1006D00095E00E9477224AE050E06C2F8AE795E08F
:1006E000CF910C946D230F931F93CF93DF938C01C5
:1006F000D0E0C0E0C017D10751F061E08FE00E9468
:10070000072060E08FE00E9407202196F3CFDF9161
:10071000CF911F910F91089561E082E00E94072020
:1007200088EE93E00E94730360E082E00C9407205F
:10073000CF93DF93C82FDAE081E090E00E9473034B
:1007400082E10E943520019781F081E090E00E94D3
:10075000730382E10E943520892B81F06FE970E0FC
:100760008AE795E00E949C22FFCFD15029F760E8EC
:1007700070E08AE795E00E949C22FFCF61E08EE066
:100780000E940720DFEFDABB8C2F867F8BBB3BB349
:100790008C2F90E0C3FB222720F9232B2BBB2BB3FC
:1007A00033E0880F991F3A95E1F78870822B8BBB55
:1007B00081E090E00E9473031ABADBBB60E08EE038
:1007C000DF91CF910C940720CF93DF93D82FC92FBF
:1007D00088EB0E9498038D2F0E9498038C2F0E9413
:1007E00098038EE80E94980388EDDF91CF910C94D6
:1007F00098031F93CF93DF93C82F162FD72F86EC24
:100800000E94980386E00E949803812F0E9498031B
:100810008D2F0E9498038C2FDF91CF911F910C9404
:1008200098030E94CA1508950E94D81608950F9340
:100830001F93CF93DF9300D0CDB7DEB78B01AE010E
:100840004F5F5F4F60E270E00E945F189981F8018E
:1008500090830F900F90DF91CF911F910F9108958A
:100860000F931F93CF93DF9300D0CDB7DEB78B01EB
:10087000AE014F5F5F4F60E270E0009721F470E0DF
:1008800060E090E080E00E9431199981F801908346
:100890000F900F90DF91CF911F910F910895B0E0CD
:1008A000A0E0BC01CD0129E0660F771F881F991FCA
:1008B0002A95D1F70E94351A08950F931F93CF936D
:1008C000DF93662309F476C08A01C62FD82F6CEB1C
:1008D00070E08AE795E00E9477224AE050E06C2FB2
:1008E0008AE795E00E946D2369E272E08AE795E06D
:1008F0000E94772260EE70E0C330C1F058F46DECD6
:1009000070E0C13099F066ED70E0C23079F06DE0D2
:1009100071E00CC063EF70E0C53041F068EE70E04C
:10092000C53020F06FEF70E0C63089F78AE795E0B8
:100930000E94772265E171E08AE795E00E947722C4
:1009400065E271E0D230A1F058F46AE171E0DD2394
:1009500079F060E271E0D13059F06DE071E008C0EB
:100960006AE271E0D33021F060E371E0D430A9F79E
:100970008AE795E00E94772265E371E08AE795E0D7
:100980000E9477220115110559F060E471E08AE7B1
:1009900095E00E947722B8018AE795E00E947722CD
:1009A00065E073E08AE795E0DF91CF911F910F91A9
:1009B0000C949C22DF91CF911F910F910895CF93BA
:1009C000C82F6AE471E08AE795E00E9477224AE046
:1009D00050E06C2F8AE795E00E946D23C05DC093C4
:1009E000690087E690E00E9414046DE274E082E3FF
:1009F00094E00E94170480912D04882399F069E205
:100A000072E08AE795E00E94772262E374E08AE769
:100A100095E00E94772265E073E08AE795E0CF9148
:100A20000C947722CF91089564E571E082EA94E016
:100A30000E94E3236DE571E08CE994E00C94E323DC
:100A40008CE994E00E94742382EA94E00C9474236D
:100A50008AE795E00E945E20181619062CF48AE7B2
:100A600095E00E947820F4CF64E570E08AE795E095
:100A70000E948A228AE795E00E945E2018161906D5
:100A8000CCF70895CF93DF93EC0182E594E00E94C8
:100A9000CA158823B1F082E594E00E94CA158093BC
:100AA0002E04882371F050E040E060912E0480E035
:100AB0000E945D040E94280582E594E00E941104D2
:100AC000EACFCE010E94D81680932E048823F9F035
:100AD000AE0160912E0481E00E945D040E94280511
:100AE000CE010E94D81680932E04833069F082E5EF
:100AF00094E00E94110482E594E00E941104CE016A
:100B00000E94D81680932E0480912E04DFCFDF91AF
:100B1000CF910895EF92FF920F931F93CF93DF939E
:100B20007C0101E010E0E7016DE274E082E394E013
:100B30000E94170480932E0480912D04811100E0FF
:100B400010928D04E0918D0480912D04E817D8F463
:100B5000112339F061EA70E08AE795E00E945322A0
:100B6000FFCFF0E0EE5CFB4FBE0180810E94F903F5
:100B7000219680918D048F5F80938D0411E02097E2
:100B800009F310E0DFCF60912E04803281F46623F8
:100B900059F2409130045091310482E00E945D048A
:100BA0000E94280590E080E00E944F0402C061117D
:100BB000F0CF80912E048111B6CF002339F06EE77B
:100BC00070E08AE795E00E945322FFCFCE018E1994
:100BD0009F09DF91CF911F910F91FF90EF900895A2
:100BE000EF920F93CF93C22F68E670E08DEA94E006
:100BF0000E943F1C70E060E08DEA94E00E942103B7
:100C0000809182040E945103682F8DEA94E00E9433
:100C1000C71B809181040E945103682F8DEA94E0E4
:100C20000E94C71B809180040E945103682F8DEAA7
:100C300094E00E94C71B61E070E08DEA94E00E949E
:100C400021038C2F0E945103682F8DEA94E00E94AB
:100C5000C71B802F0E945103682F8DEA94E00E94E9
:100C6000C71B8E2D0E945103682F8DEA94E00E94CD
:100C7000C71B8DEA94E0CF910F91EF900C94BA1CB2
:100C80006F927F928F929F92AF92BF92CF92DF929C
:100C9000EF92FF920F931F93CF93DF934C015B0171
:100CA000EA01390168E670E08DEA94E00E943F1C99
:100CB00070E060E08DEA94E00E9421038DEA94E008
:100CC0000E94BA1C42E150E068E670E08DEA94E0D0
:100CD0000E94B71C8DEA94E00E946E1B8F770E94E1
:100CE0005803F40180838DEA94E00E946E1B0E94F9
:100CF0005803F50180838DEA94E00E946E1B8F7388
:100D00000E94580388838DEA94E00E946E1B8DEA4E
:100D100094E00E946E1B0E945803F30180838DEAC9
:100D200094E00E946E1B0E945803F80180838DEAB4
:100D300094E00E946E1B0E945803F7018083CAE072
:100D40008DEA94E00E946E1BC150D1F78DEA94E0C9
:100D50000E946E1BF6018083DF91CF911F910F914E
:100D6000FF90EF90DF90CF90BF90AF909F908F90CB
:100D70007F906F900895CF92DF92EF92FF920F9342
:100D80001F938823A1F08CE7C82E84E0D82E9DE71E
:100D9000E92E94E0F92E0EE714E02FE734E040E866
:100DA00054E061E874E082E894E00E94400680919B
:100DB0007F040E94610369E671E08AE795E00E9482
:100DC000772280917E040E94610369E671E08AE7E0
:100DD00095E00E94772280917D040E94610363ED7B
:100DE00071E08AE795E00E947722809180040E945A
:100DF000610363E871E08AE795E00E9477228091C1
:100E000081040E94610363E871E08AE795E00E9433
:100E10007722809182041F910F91FF90EF90DF90D5
:100E2000CF900C946103CF92DF92EF92FF920F93D9
:100E30001F93CF93DF938CE7C82E84E0D82E9DE7D5
:100E4000E92E94E0F92E0EE714E02FE734E040E8B5
:100E500054E061E874E082E894E00E944006109259
:100E600094046BE671E08AE795E00E949C2265E8B5
:100E700071E08AE795E00E949C22CAE0D6EF11E07B
:100E800063ED71E08AE795E00E94772280919404F7
:100E9000823009F489C008F064C0882309F470C066
:100EA000813009F478C00E941D1F609396047093EE
:100EB0009704809398049093990486E994E00E94A3
:100EC00028038AE795E00E9478208093950485376F
:100ED00009F490C0853509F48DC0843709F496C0B3
:100EE000843509F493C08D3041F76DE08AE795E0D1
:100EF0000E94EA20809195048D3011F6809194042F
:100F00008F5F80939404863008F4BACFE0907D041C
:100F100000917E0420917F044091800460918104BF
:100F2000809182040E94F00560E072E08AE795E01B
:100F30000E949C226FE072E08AE795E00E9477228F
:100F400081E00E94BB0665E073E08AE795E0DF91EF
:100F5000CF911F910F91FF90EF90DF90CF900C9465
:100F60009C228430F1F1A0F1853009F09CCF64EF30
:100F700071E08AE795E00E9477228091820408C0A0
:100F800064EB71E08AE795E00E94772280917D040E
:100F90000E94610388CF6DEB71E08AE795E00E94C3
:100FA000772280917E04F4CF67EC71E08AE795E0C8
:100FB0000E9477226DE08AE795E00E94EA2065EDC5
:100FC00071E08AE795E00E94772280917F04E0CF6C
:100FD0006EED71E08AE795E00E94772280918004AF
:100FE000D7CF68EE71E08AE795E00E947722809182
:100FF0008104CECF909194049230F1F1E8F49923DA
:1010000051F1913089F1843709F06FCF80919404C8
:10101000823009F48AC008F062C0882309F470C0E5
:10102000813009F062CF80917E048B3008F478C063
:101030008A5080937E0459CF943009F447C0E8F178
:10104000953009F7809182048F5F8C3308F4C7C014
:10105000109282044ACF80917D048F5F843608F419
:10106000BBC010927D0441CF80917E048F5F8D3094
:1010700000F390937E0439CF80917F048F5F80933B
:101080007F04E0917E04E23089F490E020917D04B9
:10109000237049F42DE130E0281739070CF025CFF3
:1010A00010937F0422CF2CE130E0F6CFF0E0E9503E
:1010B000FC4F90819817A0F318CF809180048F5F28
:1010C000883108F483C0109280040FCF809181048E
:1010D0008F5F8C3308F47DC01092810406CF84307A
:1010E00009F45CC008F44AC0853009F0FECE2091B6
:1010F0008204265F2C3308F061C020938204F5CE71
:1011000020917D04265F243618F420937D04EDCED3
:10111000822F6C2F0E9484248D9F200D1124F5CFE7
:10112000833008F0E2CE865F84CF20917F04265F73
:1011300020937F04422F50E0E0917E04F0E0E950DC
:10114000FC4F808190E030917D04337061E070E06D
:1011500011F070E060E0860F971F841795074CF43C
:10116000822F6C2F0E9484248D9F200D11242093A8
:101170007F0480917F048111B8CE92CF20918004AA
:10118000265F283118F420938004AFCE822F6C2F75
:101190000E9484248D9F200D1124F5CF209181047D
:1011A000265F2C3318F4209381049FCE822F6C2F5E
:1011B0000E9484248D9F200D1124F5CF822F6C2F47
:1011C0000E9484248D9F200D112497CF809380044A
:1011D0008CCE8093810489CE80937D0486CE8093CB
:1011E000820483CEEF920F93CF93DF9300D000D091
:1011F00000D0CDB7DEB768E670E08DEA94E00E94DB
:101200003F1C8DEA94E00E94BA1C811176C16CE209
:1012100072E08AE795E00E94772281E00E94BB0697
:1012200065E073E08AE795E00E949C226BE472E03F
:101230008AE795E00E94772260917C04062E000CDC
:10124000770B4AE050E08AE795E00E94592360E777
:1012500072E08AE795E00E949C2268E670E08DEAE1
:1012600094E00E943F1C6FE070E08DEA94E00E94E1
:1012700021038DEA94E00E94BA1C41E050E068E648
:1012800070E08DEA94E00E94B71C8DEA94E00E9421
:101290006E1B87FF0AC128E030E046E050E062EABA
:1012A00074E0CE0101960E942224CE0101960E9494
:1012B000682460938204CE0101960E94742325E085
:1012C00030E043E050E062EA74E0CE0101960E9413
:1012D0002224CE0101960E94682460938104CE01ED
:1012E00001960E94742322E030E050E040E062EA80
:1012F00074E0CE0101960E942224CE0101960E9444
:10130000682460938004CE0101960E94742326E035
:1013100030E044E050E06CE974E0CE0101960E94B8
:101320002224CE0101960E94682460937F04CE019E
:1013300001960E94742370E060E08CE994E00E94C2
:101340001124EFEBE80FE33108F02FC00E2E000C54
:10135000FF0BE355F64F0C94C6245D0AD509D50959
:101360007B0AD5095B0AD509D509D509C009D50974
:10137000D509690A790A770AD509D509D509750AFF
:1013800061E070E08CE994E00E941124813609F458
:101390008EC062E070E08CE994E00E9411248E36E9
:1013A00009F487C087E080937E042BE030E049E0B9
:1013B00050E06CE974E0CE0101960E942224CE0137
:1013C00001960E94682460937D04CE0101960E94DC
:1013D000742362E772E08AE795E00E949C226AE843
:1013E00072E08AE795E00E94772280E00E94BB06C7
:1013F00065EB72E08AE795E00E9477220E941D1F4C
:101400006093960470939704809398049093990442
:1014100086E994E00E9428038AE795E00E947820FC
:1014200080939504893731F0893521F08E3611F09B
:101430008E3471F7682F8AE795E00E94B32280917D
:1014400095048F7D8935D9F4E0907D0400917E0468
:1014500020917F04409180046091810480918204F6
:101460000E94F00560EC72E08AE795E00E94772226
:1014700081E00E94BB068AE795E00E94862268E62A
:1014800070E08DEA94E00E943F1C6FE070E08DEA0E
:1014900094E00E94210368E070E08DEA94E00E94ED
:1014A00021038DEA94E00E94BA1C81E027C081E00C
:1014B0007ACF86E078CF82E076CF62E070E08CE988
:1014C00094E00E941124823711F088E06CCF84E010
:1014D0006ACF62E070E08CE994E00E9411248237C8
:1014E00011F085E060CF83E05ECF89E05CCF8AE0D9
:1014F0005ACF8BE058CF8CE056CF80E026960FB6BF
:10150000F894DEBF0FBECDBFDF91CF910F91EF906A
:101510000895AF92BF92CF92DF92EF92FF920F9316
:101520001F93CF93DF9361E08FE00E94CB1F60E0B9
:101530008FE00E94072061E082E00E94CB1F60E004
:1015400082E00E94072061E080E00E94CB1F60E003
:1015500080E00E94072061E083E00E94CB1F60E0F2
:1015600083E00E94072061E08EE00E94CB1F61E0D3
:101570008EE00E94072060E08AE00E94CB1F61E0BD
:1015800081E00E94CB1F60E081E00E94072062E0C2
:101590008BE10E94CB1F62E089E10E94CB1F62E0D9
:1015A0008AE10E94CB1F62E088E10E94CB1F62E0CB
:1015B0008CE10E94CB1F62E08DE10E94CB1F62E0B4
:1015C0008EE10E94CB1F62E08FE10E94CB1F62E0A0
:1015D00085E10E94CB1F62E086E10E94CB1F62E0A2
:1015E00084E10E94CB1F62E082E10E94CB1F62E097
:1015F00083E10E94CB1F0E948C0361E080E00E9487
:10160000072070E060E080E00E94F90362E08CE077
:101610000E94CB1F61E08BE00E94CB1F60E08BE05B
:101620000E94072064E670E080E090E00E944F1F77
:1016300061E08BE00E94072064EF71E080E090E0C1
:101640000E944F1F62E08DE00E94CB1F8DE00E9440
:101650003520EC0161E08DE00E94CB1F61E08DE060
:101660000E9407208EE090E00E941F0380932804D0
:10167000833038F060E08EE090E00E940B0310921F
:10168000280426E040E052EC61E070E08AE795E053
:101690000E94312162E472E08AE795E00E945322C1
:1016A0008AE795E00E9486228DE090E00E941F0369
:1016B00080938C04823040F061E08DE090E00E94E5
:1016C0000B0381E080938C046BE272E08AE795E083
:1016D0000E94532280918C0465EE72E0811102C059
:1016E00067EE72E08AE795E00E94772269EE72E089
:1016F0008AE795E00E949C228DEA94E00E94231CD8
:1017000060E270E08DEA94E00E943F1C8DEA94E074
:101710000E94BA1C811103C081E080938B040E9457
:10172000F2088093830480918B04882331F065E173
:1017300072E08AE795E00E948A226EEF71E08AE704
:1017400095E00E9453228CE090E00E941F038230BB
:1017500028F060E08CE090E00E940B038CE090E0C9
:101760000E941F0380932F046DEE72E0811102C06E
:1017700060EF72E08AE795E00E949C2282E594E0A7
:101780000E94110482E594E00E9411048AE090E036
:101790000E941F0380938A04CD2B19F0853008F432
:1017A000E0C08AE795E00E945E20181619062CF426
:1017B0008AE795E00E947820F4CF8AE795E00E94BE
:1017C000862260ED71E08AE795E00E948A2280918E
:1017D0008A04D1E38530C0F460EC71E08AE795E0DB
:1017E0000E94532260918A0470E06F5F7F4F4AE04D
:1017F00050E08AE795E00E94592365E073E08AE7AC
:1018000095E00E949C22D0E366EB71E08AE795E0C8
:101810000E948A2269EA71E08AE795E00E948A22A2
:101820006CE971E08AE795E00E948A226CE871E039
:101830008AE795E00E948A226AE771E08AE795E0EC
:101840000E945322809128040E94DF0464EF72E01A
:101850008AE795E00E947722809128040E94DF04A5
:101860008AE795E00E9486226BE571E08AE795E0C1
:101870000E94532280918C0467EE72E0811102C0B5
:1018800065EE72E08AE795E00E94772262E073E0FD
:101890008AE795E00E949C226EE371E08AE795E07A
:1018A0000E94532280912F046DEE72E0882311F084
:1018B00060EF72E08AE795E00E94772265E073E0CE
:1018C0008AE795E00E949C2280918304C8E38823E4
:1018D00039F065E271E08AE795E00E948A22C9E367
:1018E0008AE795E00E9486220E941D1F609396045D
:1018F00070939704809398049093990467E073E041
:101900008AE795E00E94772286E994E00E94280306
:101910008AE795E00E947820809395048D17A4F3C0
:10192000C81794F3682F8AE795E00E947F226BE145
:1019300073E08AE795E00E949C22809195048733AA
:10194000D9F19CF5863309F44DC06091950461533B
:1019500060938A048AE090E0653008F09EC00E949F
:101960000B0380918A04843071F467EC70E08AE79D
:1019700095E00E945322809128040E94DF048AE7A8
:1019800095E00E94862280918A04823009F4BCC0CE
:1019900008F088C0882309F497C0813009F4A9C0F1
:1019A00010E0D0E0C0E000E0E3C1883389F0893383
:1019B00061F60E941307C9CF61E080918C04811108
:1019C00060E060938C048DE090E00E940B03BDCF3B
:1019D00061E080912F04811160E060932F048CE01E
:1019E00090E0F3CF68EE70E08AE795E00E948A22EB
:1019F0008091280480938D04C3E0D0E080918D0411
:101A000090E00196BE010E94902480938D0460E2D4
:101A100073E08AE795E00E94772280918D040E940E
:101A2000DF0465ED70E08AE795E00E9453228AE7C3
:101A300095E00E945E20181619062CF48AE795E0BE
:101A40000E947820F4CF8AE795E00E945E20181665
:101A500019062CF086E994E00E942803F4CF8AE767
:101A600095E00E947820809395048D3011F08B31A1
:101A700029F68AE795E00E9486228AE795E00E948F
:101A80008622809195048D3009F05FCF60918D049E
:101A9000609328048EE090E098CF0E941F0380930B
:101AA0008A045FCF833099F1843009F079CF809137
:101AB0002804813009F44CC108F43DC1823009F09A
:101AC0006FCF8FE593E017C0E7E8F2E0859194913E
:101AD000909389048093880482EB92E0909387042A
:101AE0008093860480EF9CEF909385048093840418
:101AF00057CF85E293E090933104809330041092A5
:101B00008504109284044CCF81E393E0F4CF8EE3FC
:101B100093E09093310480933004109285041092E6
:101B2000840411E0D0E0C0E000E080EFE82E8FE018
:101B3000F82E0E948C0361E080E00E9407201111C2
:101B40001AC1209721F4C0918404D09185048FEFAD
:101B50009FEF0E94E40370E060E08AEE0E94F903C8
:101B600061E070E08C2F0E94F90362E070E08D2F3D
:101B70000E94F90363E070E0802F0E94F90364E0A3
:101B800070E080E00E94F903C7010E94E4038091A5
:101B90008A04882309F4F6C08091300490913104BE
:101BA0000E94420569E673E08AE795E00E94772289
:101BB00060913004709131048AE795E00E947722A9
:101BC00065E873E08AE795E00E94772280918404BB
:101BD000909185040E948A056C0167EA73E08AE7A8
:101BE00095E00E949C2284EF0E9498038FE090E091
:101BF0000E9473036CE271E080E090E00E944F1F4E
:101C0000112309F457C00E948C038DEA93E090934E
:101C100031048093300490E080E00E94E40310924D
:101C200085041092840480913004909131040E94C4
:101C3000420569E673E08AE795E00E9477226091A9
:101C40003004709131048AE795E00E94772265E8BC
:101C500073E08AE795E00E94772280918404909156
:101C600085040E948A0567EA73E08AE795E00E948E
:101C70009C2261EC70E08A2D0E94F90362EC70E016
:101C80008B2D0E94F90363EC70E08C2D0E94F90308
:101C900064EC70E08D2D0E94F90384EF0E9498039C
:101CA0008FE090E00E9473036CE271E080E090E0CE
:101CB0000E944F1F60E080E00E9407200E948C037A
:101CC00061E080E00E94072061E081E00E9407203F
:101CD00061E082E00E94072082B5877F82BD85B5E2
:101CE000816085BD85B5897F85BD85B5886085BDE9
:101CF00085B58F7B85BD85B5806185BD85B58F7DBB
:101D000085BD80918C0483BD61E08FE00E94CB1F74
:101D10006AEB73E08AE795E00E949C228AE795E0EF
:101D20000E945E20181619060CF04DC08AE795E057
:101D30000E947820F3CF8BE493E09093310480935A
:101D4000300480EE91ED9093850480938404E9CE75
:101D500085E593E0909331048093300480E094E033
:101D6000909385048093840410E0C0E0D5E200E401
:101D7000F12CE12CDECEA0908404B0908504D0E05C
:101D8000C0E0E5CE6AE873E08AE795E00E9477223A
:101D9000D0E0C0E08091860490918704C817D907ED
:101DA00008F01BCFE0918804F0918904EC0FFD1F2F
:101DB000849160918404709185046C0F7D1F0E9452
:101DC000F9032196E7CF61E070E080E090E00E94A7
:101DD0004F1F60E082E0DF91CF911F910F91FF9044
:101DE000EF90DF90CF90BF90AF900C940720CF92F0
:101DF000DF92EF92FF920F931F93CF9382992DC0A2
:101E00009B99C4C183B390E0E5E095958795EA95E9
:101E1000E1F7982F937090939B0429B3267F20932A
:101E20009A0469B363FB662760F9622B60939A0496
:101E300089B348E0849F900111242870262B2093B9
:101E40009A04992309F447C0913009F498C1C098C5
:101E5000C09AF894C198C19A78948AE795E00E9454
:101E60005E20892B41F080919004882321F061E06D
:101E700083E00E94072080918F04882321F10E9433
:101E80001D1F0091960410919704209198043091A1
:101E90009904601B710B820B930B653671058105EC
:101EA000910588F061E083E00E94072081E0809343
:101EB0008E040E941D1F6093960470939704809374
:101EC000980490939904CF911F910F91FF90EF90F8
:101ED000DF90CF900895E0917D00ED30C0F4F0E008
:101EE000EC58F04F0C94C624810F930F990FA40F58
:101EF000BF0FCC0FDA0FE80FF60F041022104F10AF
:101F0000631060E020FF61E08DE00E940720809177
:101F10007D008A3009F49BCF8C3009F498CF8FEF85
:101F200080937D0094CF622F8AE795E00E94EA209B
:101F3000EECF20FF03C081E08093900421FFEFCF1C
:101F400081E080938F04E3CF80918B04882339F361
:101F500060E270E08DEA94E00E943F1C62E170E074
:101F60008DEA94E00E94210360919A048DEA94E046
:101F70000E94C71B8DEA94E00E94BA1CC8CF8091D2
:101F80008B04882361F260E270E08DEA94E00E94A5
:101F90003F1C63E170E0E4CF80918B04882309F457
:101FA000BECF60E270E08DEA94E00E943F1C70E0DA
:101FB00060E0D6CF80918B04882309F4B0CF60E233
:101FC00070E08DEA94E00E943F1C61E070E0C8CFB1
:101FD00080918B04882309F4A2CF60E270E08DEA3F
:101FE00094E00E943F1C6CE070E0BACF80918B04BB
:101FF000882309F494CF60E270E08DEA94E00E94B7
:102000003F1C6DE070E0ACCF80E12436C0F48091DD
:102010002804805D80937400822F6AE00E948424EB
:1020200090E3980F90937600205D56EF859F200DEA
:1020300011242093770082E790E00E94D8168093C5
:10204000660065CF8091910490919204622F70E0B8
:10205000009751F470932C0460932B040196909395
:1020600092048093910453CF20912B04362F309308
:102070002C0420932B0440912A042115324040F473
:10208000403248F4109266002FEF20937D00E6CF97
:1020900021E1403208F022E120936600F5CF209341
:1020A0002A0480912B0490912C048115924028F4ED
:1020B000203238F4109266002ACF81E1203208F4F1
:1020C000BECF82E1BCCF8091910490919204892B84
:1020D000D1F480912B0490912C04811542E0940757
:1020E00090F420912A04203270F43091660031116E
:1020F0000AC075E0880F991F7A95E1F7822B0E943C
:102100004F048093660080916600811133C08091F6
:1021100091048F7180939404E82FF0E0EE5CFB4F04
:1021200090919A0490838F3129F569E274E082E3FB
:1021300094E00E94300480936600809129048032EC
:1021400018F483E180936600809191049091920449
:102150008F3F914078F080916600811108C069E25C
:1021600074E090E080E00E943004809366008FEF7E
:1021700080937D0080919104909192046FCF209381
:102180007D00109292041092910461CE9A997BC1C5
:1021900083B390E065E0959587956A95E1F7837044
:1021A00080939B0410929A04813009F446C118F17F
:1021B000823009F454C1CFEFCABB80919A04867F64
:1021C0008BBB8BB390919A0493FB992790F9892B41
:1021D0008BBB2BB390919A0448E0949FC0011124CB
:1021E0008870822B8BBBC09881E090E00E94881F92
:1021F0001ABACBBB2DCEE0917D00E058E93048F50E
:10220000F0E0EB5FFE4E0C94C6240E1133115C110E
:1022100029116911BD11C011131218128DE00E940D
:1022200035208093940462E08DE00E94CB1F8DE006
:102230000E94352021E0892B09F020E020939A04A8
:1022400061E08DE00E94CB1F609194048DE00E94BC
:10225000072080917D008D7F843809F4ACCF8FEF0B
:1022600080937D00A8CF80918B04882391F360E256
:1022700070E08DEA94E00E943F1C62E170E08DEA1C
:1022800094E00E9421038DEA94E00E94BA1C60E26F
:1022900070E08DEA94E00E943F1C41E050E060E273
:1022A00070E08DEA94E00E94B71C8DEA94E00E94F1
:1022B0006E1B80939A04CDCF80918B04882349F2C2
:1022C00060E270E08DEA94E00E943F1C63E170E000
:1022D000D6CF80918304882309F44BC08091910468
:1022E00090919204892BA1F44CE7C42E44E0D42EA3
:1022F0005DE7E52E54E0F52E0EE714E02FE734E01D
:1023000040E854E061E874E082E894E00E9440060E
:1023100080919104909192048730910550F520911D
:102320007F0483309105E9F068F4209181048130C5
:102330009105B9F0209180048230910591F02091AF
:1023400082040FC020917D048530910551F02091C9
:102350007E048530910528F020917C04863091051B
:1023600071F720939A0401969093920480939104BC
:1023700070CF8FEF80937D006CCF8091660099CFF6
:102380008091910490919204892BD1F480912B0437
:1023900090912C04811522E0920790F420912A0458
:1023A000203270F43091660031110AC035E0880F98
:1023B000991F3A95E1F7822B0E944F0480936600A3
:1023C00080916600811122C0809191048F71809369
:1023D0009404811113C06DE274E082E394E00E94E2
:1023E00017048093660080912D04803218F483E1F5
:1023F0008093660080916600811108C0E09194048A
:10240000F0E0EE5CFB4F808180939A048091910410
:10241000909192048F3F31E0930708F4A4CF2FEFFF
:1024200020937D00A0CF82E594E00E94CA1541CFA1
:102430008AE795E00E948C203CCF8FEF80939A042E
:102440008AE795E00E945E201816190634F48AE7A0
:1024500095E00E94782080939A04C398ACCEC091F6
:102460008304CC0F80912F04C82B8AE795E00E944B
:102470005E20181619062CF484E0C82BC0939A0429
:102480009ACE80E0FACF87E10E943520892B41F572
:10249000C39880918E04882309F110928E0482E201
:1024A00080939A04CFEFCABB80919A04867F8BBB3E
:1024B0008BB390919A0493FB992790F9892B8BBB4E
:1024C0002BB390919A0458E0959FC0011124887015
:1024D000822B8BBBC09882E090E088CE81E2E0CF77
:1024E000809193048111B9CC6DED73E08AE795E09A
:1024F0000E949C2281E080939304AFCC8FB9779B9C
:10250000FECF08958FEF0E947E128FB10895FF9243
:102510000F931F93CF93DF93C82FD42F152F062F20
:10252000F72E8091AA0481113FC083E58DB91EB8B2
:10253000C7FF09C040E050E0BA0187E70E94871258
:10254000823060F5CF7761E084E00E9407200E942E
:10255000821260E084E00E9407200E9482128C2F89
:102560000E947E128F2D0E947E12802F0E947E126A
:10257000812F0E947E128D2F0E947E1285E9C03429
:1025800021F087E8C83409F081E00E947E12CAE099
:102590000E94821287FF02C0C150D1F7DF91CF9114
:1025A0001F910F91FF90089580E58DB981E08EB95C
:1025B000BFCF0F931F93CF93DF93C091A804D09107
:1025C000A9042197CD3F8FEFD80721F080E00E942A
:1025D0007E12F7CF0E9482128F71853079F0D1E0A0
:1025E000C0E061E084E00E9407200E9482128D2FEB
:1025F0009C2FDF91CF911F910F91089508E813E16F
:10260000C0E9D1E00E9482128F3F49F00115110507
:1026100031F3CE010197F1F701501109F3CFD1E069
:10262000C0E0012BF1F2D0E0DCCFAF92BF92CF92AD
:10263000DF92EF92FF920F931F93CF93DF9300D01F
:1026400000D0CDB7DEB78091AA04882339F084E0AA
:102650000E943520892B11F40E94D91261E084E098
:102660000E94072061E084E00E94CB1F61E085E0CA
:102670000E94CB1F61E087E00E94CB1F61E084E0F5
:102680000E94CB1F83E58DB91EB861E084E00E94F3
:1026900007201AE00E9482121150E1F740E050E05A
:1026A000BA0180E40E948712182F8130D9F010E01F
:1026B0001093AA0461E084E00E9407200E94821225
:1026C00081E0111180E00F900F900F900F90DF913B
:1026D000CF911F910F91FF90EF90DF90CF90BF901F
:1026E000AF9008954AEA51E060E070E088E40E940B
:1026F0008712813079F5CE0101967C016E0195E05B
:10270000C90ED11C87010E948212F80181938F01AA
:10271000CE16DF06C1F78B81813049F68C818A3A6B
:1027200031F620E1C22E27E2D22E30E9A32EBB24BF
:10273000B39440E050E060E070E489EE0E948712BC
:10274000882359F1C5010197F1F7F1E0CF1AD108BB
:1027500081F7ADCF40E050E0BA0189EE0E948712C8
:1027600001E4823010F412E009EE80E1E82E87E205
:10277000F82E90E9C92EDD24D39440E050E0BA0150
:10278000802F0E9487128823F1F0C6010197F1F78C
:10279000F1E0EF1AF10889F78ACF40E050E0BA0182
:1027A0008AE70E948712811182CF0E948212F7016C
:1027B00081937F010E171F07C1F789811CE086FDF9
:1027C00077CF14E075CF40E052E060E070E080E544
:1027D0000E948712882309F46BCF69CFCF92DF92D2
:1027E000EF92FF920F931F93CF93DF937C016901C8
:1027F0008091AA0483FD07C089E0440F551F661F1E
:10280000771F8A95D1F781E50E948712811108C050
:10281000C0E4DCE90E9482128F3F29F42197D1F7AE
:10282000C1E0D0E022C08E3FD9F7C2E0D2E0C01BA9
:10283000D10BCC19DD0981E0C81AD10818F00E942B
:102840008212F9CFE114F10401F10E0D1F1D0E9457
:102850008212F70181937F010E171F07C1F70E94B3
:1028600082122197E1F7D0E0C0E061E084E00E94AD
:1028700007200E948212CE01DF91CF911F910F910C
:10288000FF90EF90DF90CF9008950E948212015048
:102890001109D9F7E4CFEF92FF920F931F93CF93D3
:1028A000DF930097C9F0EA018C012097B1F1E09025
:1028B000A804F090A904E114F10479F1F8018191E0
:1028C0008F010E947E12F1E0EF1AF108F092A90444
:1028D000E092A8042197E9CF4115510561057105E2
:1028E00029F18091AA0483FD07C089E0440F551F98
:1028F000661F771F8A95D1F788E50E94871281119C
:102900001DC08FEF0E947E128EEF0E947E1280E02B
:1029100092E09093A9048093A80490E080E0DF9176
:10292000CF911F910F91FF90EF900895DF91CF917C
:102930001F910F91FF90EF900C94D91281E090E0DD
:10294000EECF0F931F93E091AB04F091AC049B0189
:10295000AC01225031094109510986819781A08536
:10296000B1850297A109B109281739074A075B0702
:1029700078F4A281B0E00E94CC24028913892489D2
:102980003589600F711F821F931F1F910F9108954A
:1029900060E070E0CB01F9CF0F931F93CF93DF93EB
:1029A000EC01E091AB04F091AC04198218826C81C7
:1029B0007D818E819F81613071058105910581F155
:1029C000068117812085318560177107820793077B
:1029D00038F5611571058105910539F420812330A1
:1029E00021F46685778580899189688779878A87C8
:1029F0009B87611571058105910569F00E94A114FD
:102A00006C877D878E879F8790E080E0DF91CF91F4
:102A10001F910F9108956685778580899189F0CF00
:102A200081E090E0F3CF0F931F93CF93DF9300D01B
:102A300000D0CDB7DEB7623071058105910528F46D
:102A400061E070E080E090E055C0E091AB04F0916F
:102A5000AC040681178120853185601771078207D4
:102A6000930770F7AB01BC018081823031F1833074
:102A700039F79A012F773327220F331F220F331F85
:102A800097E076956795579547959A95D1F7828502
:102A90009385A485B585480F591F6A1F7B1F04E0E5
:102AA00010E0CE0101960E94EE13892B49F6698150
:102AB0007A818B819C819F701DC09A013327220FE0
:102AC000331F452F562F672F772782859385A4853F
:102AD000B585480F591F6A1F7B1F02E010E0CE0129
:102AE00001960E94EE13892B09F0AACF69817A81A1
:102AF00090E080E00F900F900F900F90DF91CF91BA
:102B00001F910F910895CF92DF92EF92FF920F9352
:102B10001F93CF93DF93EC016A017B0102E010E089
:102B20002EEF31E00E94EE13892B31F588819981D7
:102B300085359A4A59F526E330E0B701A601CE0162
:102B40000E94EE13892B29F488819981863491445F
:102B500089F002E010E022E530E0B701A601CE01E5
:102B60000E94EE13892BA1F481E02881398126345B
:102B7000314419F480E001C083E0DF91CF911F91CF
:102B80000F91FF90EF90DF90CF90089582E0F5CF06
:102B900081E0F3CF2F923F924F925F926F927F929C
:102BA0008F929F92AF92BF92CF92DF92EF92FF925D
:102BB0000F931F93CF93DF93CDB7DEB7A4970FB6D4
:102BC000F894DEBF0FBECDBF1C011092AC04109272
:102BD000AB040E94151380FDC3C040E050E0BA0171
:102BE000CE0101960E948315412C512C3201813077
:102BF000C1F500E110E02EEB31E040E050E0BA0119
:102C0000CE0101960E94EE13892BD9F081E090E06D
:102C1000A4960FB6F894DEBF0FBECDBFDF91CF9163
:102C20001F910F91FF90EF90DF90CF90BF90AF90EA
:102C30009F908F907F906F905F904F903F902F90DC
:102C400008958D81811103C086E090E0E1CF498431
:102C50005A846B847C84B301A201CE0101960E9448
:102C60008315833099F28111EFCF04E210E02DE05B
:102C700030E0B301A201CE0101960E94EE13892B30
:102C800029F62A853B8550E040E0211531054105B4
:102C9000510521F4288D398D4A8D5B8DAC81B0E0D2
:102CA0000E94CC244B015C014A815B8170E060E0B2
:102CB000440E551E661E771EF101428653866486B9
:102CC000758629812283CD80DE80D582C4828F8162
:102CD0009885B0E0A0E00097A105B10521F48C89AA
:102CE0009D89AE89BF8934E0D694C7943A95E1F7BF
:102CF000F12CE12C841B950BA60BB70BBC01CD016D
:102D0000681979098A099B096C197D098E099F093F
:102D100030E050E040E00E94A424DA01C9010296AC
:102D2000A11DB11DF10186839783A087B187265F1E
:102D30003F40410951092F3F3F4E4105510598F051
:102D4000873F9F4FA105B10598F47ECF82E0F10146
:102D50008083D301C201880D991DAA1DBB1D0FC020
:102D600082E090E055CF873F9F4FA105B10570F3FA
:102D700083E0F101808388A199A1AAA1BBA18687E4
:102D80009787A08BB18BC40CD51CE61CF71CC80C14
:102D9000D91CEA1CFB1CF101C28AD38AE48AF58A99
:102DA00011823092AC042092AB0490E080E030CFEE
:102DB0004F925F926F927F928F929F92BF92CF922B
:102DC000DF92EF92FF920F931F93CF93DF93CDB7D4
:102DD000DEB7EC970FB6F894DEBF0FBECDBFC09044
:102DE000AB04D090AC04C114D10409F40DC1F601B8
:102DF00011829E012F5C3F4F3CA32BA39C017901C4
:102E0000F90180812F5F3F4F8032C9F38F3209F47F
:102E100079011DA21EA21FA218A6F7018081A0E2BF
:102E2000BA2E803208F0DDC0CE0181960E94CC140B
:102E30001982009709F410C1EC960FB6F894DEBF22
:102E40000FBECDBFDF91CF911F910F91FF90EF90FB
:102E5000DF90CF90BF909F908F907F906F905F900A
:102E60004F90089520E0E0E088E0D8C0E30EF11C28
:102E700081E0913208F080E01B968C93CE01819620
:102E80000E94CC140097C1F629A13AA12F703327D4
:102E9000F5E0220F331FFA95E1F74DA55EA56FA56A
:102EA00078A900E210E0CE0101960E94EE13892B72
:102EB00019F081E090E0C0CF8981811103C083E0E7
:102EC00090E0BACF8C8583FD13C00BA11CA19E019D
:102ED0002F5F3F4FD801B801655F7F4F6A177B07AF
:102EE00009F4B5C0F90141919F019D914917B1F3D2
:102EF00009A11AA10F5F1F4F11F38DA59EA5AFA5C4
:102F0000B8A90097A105B105D1F298012F70332718
:102F1000232BD9F48090AB049090AC040196A11DB2
:102F2000B11D8DA79EA7AFA7B8AB69A57AA58BA544
:102F30009CA5F401611571058105910549F4848111
:102F400095810817190708F0BACF1AA309A39CCFD7
:102F50002281E22FE150FF0BAF019801E4E03695AA
:102F60002795EA95E1F724233523232B71F70E9457
:102F70001315623071058105910508F49ACFF401AB
:102F800046805780608471846415750586059705B1
:102F900008F095CF69A77AA78BA79CA70E94A114D8
:102FA0006DA77EA78FA798ABD0CF84FF88CFE09185
:102FB000AB04F091AC0480818330F1F48D899E895B
:102FC000B0E0A0E0DC01992788274B8D5C8D70E094
:102FD00060E0842B952BA62BB72B8DA39EA3AFA3CC
:102FE000B8A7ABA1BCA1FD01CD010B968E179F0721
:102FF00009F438CFB192FACF80E090E0DC01E5CF60
:1030000080E090E0DC013DC085E090E015CF8830A5
:1030100009F02CCF9BE0282FE32F892F31E03E0FC2
:10302000EE0DFF2DF11D9081913208F41FCF9F32DC
:1030300009F41CCF9E3259F3281708F017CFFD0171
:10304000E20FF11D9083982F81E0820FE4CFF80109
:103050009385992309F4A9CF8981882309F42FCF77
:103060008C8584FD2CCFE091AB04F091AC04808181
:10307000833031F68D899E89B0E0A0E0DC0199278C
:1030800088274B8D5C8D70E060E0842B952BA62B00
:10309000B72BF601868F978FA0A3B1A38D8D9E8D40
:1030A000AF8DB8A1828F938FA48FB58F168A178AA0
:1030B000108E118E81E0818390E080E0BDCE4F9232
:1030C0005F926F927F928F929F92AF92BF92CF92B8
:1030D000DF92EF92FF920F931F93CF93DF934C01F8
:1030E0007B013A01C091AB04D091AC04FA0111828A
:1030F000108285E090E0209709F44BC0898180FF21
:10310000AAC08A8D9B8DAC8DBD8D4E895F89688DDF
:10311000798D841B950BA60BB70BA70170E060E0BF
:1031200084179507A607B70708F47C015401412CC2
:1031300032E0532EE114F10409F490C08E899F8986
:10314000A88DB98DAC01BD01517066277727452B3D
:10315000462B472B09F04CC0DA80DA94AC01BD0154
:1031600029E076956795579547952A95D1F7D4220A
:1031700061F5892B8A2B8B2BE9F46E8D7F8D88A1CD
:1031800099A16230710581059105D8F4198281E019
:1031900090E0DF91CF911F910F91FF90EF90DF9022
:1031A000CF90BF90AF909F908F907F906F905F90E7
:1031B0004F9008956AA17BA18CA19DA10E94131537
:1031C000E0CF6AA37BA38CA39DA36AA17BA18CA162
:1031D0009DA10E94A1146115710581059105B1F2AF
:1031E0006D0D711D811D911D6EA37FA388A799A7E9
:1031F0002E893F893170C201821B930B67018E15A6
:103200009F0508F46C014EA15FA168A579A5C501D1
:103210008114910411F480E090E086010E94EE1385
:10322000892B09F0B3CF8E899F89A88DB98D8C0D1C
:103230009D1DA11DB11D8E8B9F8BA88FB98FAC0CCE
:10324000BD1CEC18FD08F30180819181C80ED91EC8
:10325000D182C0826FCF84E090E09BCF90E080E08D
:1032600098CF4F925F926F927F928F929F92AF9280
:10327000BF92CF92DF92EF92FF920F931F93CF9363
:10328000DF936C018B015A01C091AB04D091AC0467
:10329000FA011182108285E090E02097A1F08981E7
:1032A00080FFE0C08074672B29F58823E9F040E0B7
:1032B00050E0BA0190E080E00E944B14892BA1F00D
:1032C000198281E090E0DF91CF911F910F91FF90E3
:1032D000EF90DF90CF90BF90AF909F908F907F90B6
:1032E0006F905F904F90089589818F7B898390E0E4
:1032F00080E0E9CF81110AC08E899F89A88DB98DA0
:1033000088279E7F8E8B9F8BA88FB98F8A8D9B8DF0
:10331000AC8DBD8D4E895F89688D798D841B950B31
:10332000A60BB70BA80170E060E084179507A6070D
:10333000B70708F48C01812C32E0932E011511059A
:10334000B1F28E899F89A88DB98D9C013170232B94
:1033500009F040C0FA80FA94AC01BD0129E07695ED
:103360006795579547952A95D1F7F42299F4892BBB
:103370008A2B8B2B09F06FC06E8D7F8D88A199A150
:10338000623071058105910508F49ACF6AA37BA389
:103390008CA39DA36AA17BA18CA19DA10E94A114D5
:1033A000611571058105910509F48ACFAB01BC0156
:1033B0004F0D511D611D711D4EA35FA368A779A715
:1033C00090E080E00E944B14892B09F079CF89812D
:1033D000806489838E899F8991709401281B390BA1
:1033E00078012017310708F479012701712C612C2D
:1033F000B301A701C6010E944B14892B09F060CFCD
:103400008E899F89A88DB98D840D951DA61DB71D28
:103410008E8B9F8BA88FB98FCE0CDF1C0E191F09C6
:10342000F50120813181E20EF31EF182E0822C0150
:10343000F1E05F22452809F081CF40E050E0BA0179
:1034400090E080E00E944B14892B09F039CF8981EC
:103450008F7B898373CF6AA17BA18CA19DA10E94E0
:1034600013158ECF84E090E02ECF4F925F926F9233
:103470007F928F929F92AF92BF92CF92DF92EF9204
:10348000FF92CF93DF9300D000D000D0CDB7DEB74E
:103490002091AB043091AC043E832D83211531057E
:1034A00009F40CC1D90111962C91119720FF09C183
:1034B0005A96CD90DD90ED90FC905D976C157D0552
:1034C0008E059F0510F46B017C01ED81FE8146881D
:1034D0005788608C718C168A178A108E118EC114D1
:1034E000D104E104F10409F4E6C08280912CB12CEE
:1034F000A12C39E0880C991CAA1CBB1C3A95D1F769
:10350000411451046104710409F470C0B1E04B1A14
:10351000510861087108C701B6016150710981093C
:103520009109A50194010E94A42429833A834B8325
:103530005C83C301B201A50194010E94A424898186
:103540009A81AB81BC8182179307A407B50708F461
:103550004DC088279927DC0188199909AA09BB0958
:1035600084219521A621B721ED81FE81868B978B41
:10357000A08FB18FC81AD90AEA0AFB0A62A173A107
:1035800084A195A18C149D04AE04BF0408F058C01A
:103590000E941315623071058105910568F0AD81B7
:1035A000BE8116964D905D906D907C901997641534
:1035B00075058605970540F1ED81FE81118281E058
:1035C00090E026960FB6F894DEBF0FBECDBFDF9118
:1035D000CF91FF90EF90DF90CF90BF90AF909F90F2
:1035E0008F907F906F905F904F900895AD81BE81D6
:1035F0005E966D917D918D919C919197FD0162A355
:1036000073A384A395A3BECFAD81BE8192966D9323
:103610007D938D939C93959756964D905D906D906C
:103620007C905997480C591C6A1C7B1CFD01468AEA
:10363000578A608E718EC818D908EA08FB08A2CF95
:10364000AD81BE8156968D909D90AD90BC9059975E
:10365000C80CD91CEA1CFB1CFD01C68AD78AE08E67
:10366000F18E0E94A114AB01BC0141155105610509
:10367000710529F4AD81BE8111961C92A0CFED8118
:10368000FE8182818150990B092E000CAA0BBB0B85
:1036900029E0F694E794D794C7942A95D1F78C2122
:1036A0009D21AE21BF21480F591F6A1F7B1F46A3D2
:1036B00057A360A771A790E080E083CF85E090E0FA
:1036C00080CF84E090E07DCF90E080E0089580910D
:1036D000E1049091E204891B990B08959091E20412
:1036E0008091E1042FEF3FEF981748F4E92FF0E0C5
:1036F000ED51FB4F208130E09F5F9093E204C901C0
:103700000895E091E2048091E104E81730F4F0E0DC
:10371000ED51FB4F808190E008958FEF9FEF08956A
:103720000895CF93DF93EC01E091B904F091BA04CE
:103730003097F1F09091E2048091E1049817C0F085
:1037400090E0292F30E02617370754F4DE01A20F4E
:10375000B31F4C912D513B4FD9014C939F5FF1CF3B
:103760001092E2046093E104CB01DF91CF910994C0
:10377000DF91CF910895E091BB04F091BC043097A4
:1037800029F01092BF041092BE0409940895CF93BB
:10379000DF931F92CDB7DEB769832091BD0422234A
:1037A000F9F02091BE04203258F021E030E0FC0115
:1037B0003383228390E080E00F90DF91CF910895D2
:1037C0008091BF04E82FF0E0E054FB4F9981908393
:1037D0008F5F8093BF048093BE0481E090E0ECCFC4
:1037E00061E0CE0101960E947D1DF7CFCF92DF925E
:1037F000EF92FF920F931F93CF93DF937C01CB0146
:103800008A012091BD04222389F0EB016B01C40ED3
:10381000D51ECC15DD0569F06991D701ED91FC91BC
:103820000190F081E02DC7010995F3CF642F0E942C
:103830007D1DC801DF91CF911F910F91FF90EF90F7
:10384000DF90CF9008951092E2041092E10410925C
:10385000BF041092BE040E94CE1C8BEB9BE10E9421
:10386000A91D81E99BE10C94A41D81E08093BD0416
:103870006093E0041092BF041092BE0408950C946B
:10388000351C0F93062F21E04091BE0460EC74E0DC
:103890008091E0040E94291D1092BF041092BE0482
:1038A0001092BD040F9108954F925F926F927F9294
:1038B000AF92BF92CF92EF92FF920F931F93CF934D
:1038C000DF935C01F62ED42F28013901EE2019F187
:1038D0000E94351CCE2DC43008F0C3E0C150B8F0B2
:1038E00028E0C29FC0011124A301920104C0569593
:1038F0004795379527958A95D2F7B901D501ED916E
:10390000FC910190F081E02DC5010995E7CF60E0C1
:10391000C5010E94411C4D2FD13208F040E22C2DF0
:1039200063EE74E08F2D0E94E41C1092E2048093F9
:10393000E104DF91CF911F910F91FF90EF90CF9015
:10394000BF90AF907F906F905F904F900895CF920F
:10395000EF920F931F93C22EE12C00E010E098012C
:103960000E94541C1F910F91EF90CF90089521E079
:103970000C94A71C61E00C94411CEDEAF4E0138266
:10398000128288EE93E0A0E0B0E084839583A68362
:10399000B78388E094E09183808308951092700546
:1039A00081E080936E0510926D0561E081E10E94D7
:1039B000072061E080E10E9407200898099888E4C8
:1039C00080B985E486BF0895413208F040C09091E7
:1039D00070059111FCCF91E09093700520936E05D6
:1039E0002FEF2093030510924805240F20934705DD
:1039F00090936F0590916F05880F892B80936F05C9
:103A000080916D058130F1F410926D0580916F0504
:103A100083B906B603FCFACF85EC86BF80917005AA
:103A20008130E1F380914805841710F440914805F6
:103A3000A9E4B5E0962FFB018E2F891B841720F097
:103A4000842F089585EEE9CF8D918193F5CF40E0E5
:103A5000F7CF0F93413208F048C090917005911153
:103A6000FCCF92E09093700500936E059FEF9093CA
:103A700003051092480540934705362FA9E4B5E0A9
:103A8000FB019E2F931B941758F110926F05909194
:103A90006F05880F892B80936F0580916D058130AC
:103AA00011F510926D0580916F0583B906B603FC80
:103AB000FACF85EC86BF222321F0809170058230F9
:103AC000D1F3809103058F3F91F0809103058032FF
:103AD00081F080910305803371F084E00F910895A7
:103AE00091919D93CECF85EEE5CF81E0F7CF80E039
:103AF000F5CF82E0F3CF83E0F1CF20912505260FAB
:103B00003327331F21323105ECF420917005FC017D
:103B100090E080E0243069F082E00895A0912505CE
:103B20002191AC01495D5A4FA40FB52FB11D2C93C3
:103B30000196861798F380912505680F60932505F7
:103B400080E0089581E0089590936A058093690567
:103B5000089590936C0580936B05089585ED86BF5D
:103B600006B604FCFDCF10927005089585EC86BF63
:103B70001092700508951F920F920FB60F921124A4
:103B80002F933F934F935F936F937F938F939F9365
:103B9000AF93BF93EF93FF9381B1887F803609F491
:103BA0004CC008F03FC0883209F4A4C018F5803139
:103BB00009F49AC0B8F4882309F4F2C0883009F4F3
:103BC00093C0FF91EF91BF91AF919F918F917F91A2
:103BD0006F915F914F913F912F910F900FBE0F907A
:103BE0001F901895883109F485C0803251F7809371
:103BF000030515C0803409F499C048F48033B9F343
:103C00008833F9F6809303050E94B61DDACF80351C
:103C100009F481C0883509F491C0883491F60E9476
:103C2000AE1DCFCF883909F487C030F5883729F029
:103C300050F4883611F0803721F683E080937005C8
:103C40001092040554C0883809F476C0803919F000
:103C5000803809F0B6CF80910405803208F06CC03E
:103C6000E091040581E08E0F8093040583B1F0E0BC
:103C7000EB5FFA4F80833BC0803B39F0E0F4803A41
:103C800009F473C0883A09F09CCF84E080937005F2
:103C90001092260510922505E0916B05F0916C05B8
:103CA00009958091250581110FC081E0809325053C
:103CB0001092270509C0803C09F470C0883C09F4C3
:103CC0006DC0883B09F07DCFE091260581E08E0F25
:103CD00080932605F0E0E95DFA4F808183B99091E9
:103CE00026058091250526C080916F0583B985EC56
:103CF00086BF67CF9091480580914705981748F592
:103D0000E091480581E08E0F80934805F0E0E75B85
:103D1000FA4F8081EBCFE091480581E08E0F8093D0
:103D2000480583B1F0E0E75BFA4F80839091480546
:103D3000809147059817D8F285E8DACFE0914805D9
:103D400081E08E0F8093480583B1F0E0E75BFA4F86
:103D5000808380916E05811162CF81E080936D0533
:103D600084EA86BF109270052CCF0E94B61D809108
:103D70000405803230F4E0910405F0E0EB5FFA4F87
:103D800010826091040570E0E0916905F0916A0588
:103D900085E095E009951092040513CF85ECE1CFFD
:103DA000109203053CCF1F920F920FB60F92112471
:103DB0002F933F938F939F93AF93BF9380917605FB
:103DC00090917705A0917805B091790530917505AE
:103DD00023E0230F2D3768F126E8230F0296A11D5B
:103DE000B11D209375058093760590937705A09378
:103DF0007805B09379058091710590917205A09135
:103E00007305B09174050196A11DB11D80937105D4
:103E100090937205A0937305B0937405BF91AF9111
:103E20009F918F913F912F910F900FBE0F901F90F8
:103E300018950196A11DB11DD4CF2FB7F8946091AC
:103E400076057091770580917805909179052FBF5F
:103E500008953FB7F8948091710590917205A091F3
:103E60007305B091740522B708B600FE05C02F3F58
:103E700019F00196A11DB11D3FBFBA2FA92F982F90
:103E80008827BC01CD01620F711D811D911D42E08B
:103E9000660F771F881F991F4A95D1F708958F9253
:103EA0009F92AF92BF92CF92DF92EF92FF926B01FF
:103EB0007C010E94291F4B015C01C114D104E10463
:103EC000F104E9F00E9483240E94291F68197909EE
:103ED0008A099B09683E73408105910570F321E0D2
:103EE000C21AD108E108F10888EE880E83E0981E16
:103EF000A11CB11CC114D104E104F10429F7FF9005
:103F0000EF90DF90CF90BF90AF909F908F900895EB
:103F10008230910538F0880F991F880F991F0597F7
:103F20000197F1F70895789483B7836083BF83B7CF
:103F3000886483BF89B7816089BF82E08EBD8EB5FA
:103F400081608EBD8FB581608FBD85B5846085BD74
:103F500085B5806485BD87E886B91AB80895843030
:103F600059F028F4813099F0823089F00895853035
:103F700039F0873041F008958FB58F778FBD089560
:103F80008FB58F7DFBCF85B58F7D85BD089583B7B8
:103F90008F7D83BF0895CF93DF9390E0FC01E55AB6
:103FA000FA4F249185589A4FFC0184918823C9F0D7
:103FB00090E0880F991FFC01E155FA4FA591B4914B
:103FC000FC01EB55FA4FC591D49161110DC09FB71B
:103FD000F8948C91209582238C93888128232883C0
:103FE0009FBFDF91CF910895623051F49FB7F8944D
:103FF0003C91822F809583238C93E8812E2BEFCFE9
:104000008FB7F894EC912E2B2C938FBFEACF1F9390
:10401000CF93DF93282F30E0F901E55CFA4F8491CC
:10402000F901E55AFA4FD491F901E558FA4FC491D4
:10403000CC23A9F0162F81110E94AF1FEC2FF0E0C6
:10404000EE0FFF1FEB55FA4FA591B4918FB7F8947F
:10405000EC91111108C0D095DE23DC938FBFDF9166
:10406000CF911F910895DE2BF8CFCF93DF93282FA8
:1040700030E0F901E55CFA4F8491F901E55AFA4F15
:10408000D491F901E558FA4FC491CC23A1F08111E4
:104090000E94AF1FEC2FF0E0EE0FFF1FE556FA4F26
:1040A000A591B491EC91ED2381E090E009F480E0DA
:1040B000DF91CF91089580E090E0FACFFC01918DDF
:1040C000228D892F90E0805C9F4F821B91098F7316
:1040D00099270895FC01918D828D981731F0828D7A
:1040E000E80FF11D858D90E008958FEF9FEF089503
:1040F000FC01918D828D981761F0A28DAE0FBF2FBC
:10410000B11D5D968C91928D9F5F9F73928F90E011
:1041100008958FEF9FEF0895FC01538D448D252F57
:1041200030E0842F90E0821B930B541710F0CF9651
:1041300008950197089582EE91E2892B49F080E07D
:1041400090E0892B29F00E94E22181110C9400005B
:104150000895FC01A48DA80FB92FB11DA35ABF4F1C
:104160002C91848D90E001968F739927848FA68976
:10417000B7892C93A089B1898C9180648C93938D9D
:10418000848D981306C00288F389E02D80818F7D8D
:1041900080830895CF93DF93EC01888D8823B9F055
:1041A000AA89BB89E889F9898C9185FD03C0808142
:1041B00086FD0DC00FB607FCF7CF8C9185FFF2CFBF
:1041C000808185FFEDCFCE010E94A920E9CFDF914C
:1041D000CF910895EF92FF920F931F93CF93DF93A8
:1041E000EC0181E0888F9B8D8C8D981316C0E88937
:1041F000F989808185FF11C0EE89FF896083E88994
:10420000F98980818064808381E090E0DF91CF91A3
:104210001F910F91FF90EF900895F62E0B8D10E0F7
:104220000F5F1F4F0F731127E02E8C8D8E110CC066
:104230000FB607FCFACFE889F989808185FFF5CFB1
:10424000CE010E94A920F1CFEB8DEC0FFD2FF11DC7
:10425000E35AFF4FF0820B8FEA89FB8980818062ED
:10426000D2CFCF92DF92EF92FF921F93CF93DF9343
:10427000EC016A017B01122FE889F98982E08083D1
:10428000C11481EED806E104F104A1F060E079E008
:104290008DE390E0A70196010E94A42421503109EA
:1042A000410951095695479537952795211580E184
:1042B000380798F0E889F989108260E874E88EE19F
:1042C00090E0A70196010E94A424215031094109E0
:1042D00051095695479537952795EC85FD8530838F
:1042E000EE85FF852083188E1068EC89FD89108388
:1042F000EA89FB89808188698083EA89FB898081DA
:104300008F7D8083DF91CF911F91FF90EF90DF90A1
:10431000CF9008951F920F920FB60F9211242F93F2
:104320008F939F93EF93FF93E0918A05F0918B0514
:104330008081E0919005F091910582FD1BC09081F4
:10434000809193058F5F8F7320919405821741F0C0
:10435000E0919305F0E0E658FA4F958F809393052E
:10436000FF91EF919F918F912F910F900FBE0F9022
:104370001F9018958081F4CF1F920F920FB60F9265
:1043800011242F933F934F935F936F937F938F935A
:104390009F93AF93BF93EF93FF938AE795E00E94BB
:1043A000A920FF91EF91BF91AF919F918F917F9144
:1043B0006F915F914F913F912F910F900FBE0F9092
:1043C0001F9018958AE795E00E945E2021E0892BD6
:1043D00009F420E0822F0895EAE7F5E013821282C3
:1043E00088EE93E0A0E0B0E084839583A683B78352
:1043F0008AE194E09183808380E490E095878487CC
:1044000029E230E0378726872BE230E0318B208BA2
:104410002AE230E0338B228B958B848B8CE290E008
:10442000978B868B118E128E138E148E0895AF92F9
:10443000BF92CF92DF92EF92FF920F931F93CF9391
:10444000DF936C017B018B01040F151FEB015E01F3
:10445000AE18BF08C017D10759F06991D601ED9188
:10446000FC910190F081E02DC6010995892B79F727
:10447000C501DF91CF911F910F91FF90EF90DF90D9
:10448000CF90BF90AF900895FB0101900020E9F715
:104490003197AF01461B570BDC01ED91FC91028077
:1044A000F381E02D0994EF92FF920F931F93CF9326
:1044B000DF938C017B01D0E0C0E0F701EC0FFD1F22
:1044C0006491662361F0D801ED91FC910190F08137
:1044D000E02DC8010995892B11F02196EECFCE0170
:1044E000DF91CF911F910F91FF90EF90089561158B
:1044F000710511F00C94442290E080E00895DC01F5
:10450000ED91FC910190F081E02D099465EF73E04D
:104510000C9444220F931F93CF93DF93EC010E94DE
:1045200053228C01CE010E948622800F911FDF91C1
:10453000CF911F910F9108950F931F93CF93DF9306
:104540008C01D0E0C0E06115710519F00E94442291
:10455000EC01C8010E9486228C0F9D1FDF91CF9134
:104560001F910F9108950F931F93CF93DF93EC0149
:104570000E947F228C01CE010E948622800F911F13
:10458000DF91CF911F910F9108958F929F92AF92DB
:10459000BF92EF92FF920F931F93CF93DF93CDB70C
:1045A000DEB7A1970FB6F894DEBF0FBECDBF7C017A
:1045B000FA01CB0119A2223008F42AE08E010F5D26
:1045C0001F4F822E912CB12CA12CBF01A50194016B
:1045D0000E94A424F901CA016A300CF5605DD8017B
:1045E0006E938D01232B242B252B79F790E080E00F
:1045F000109721F0BD01C7010E944422A1960FB679
:10460000F894DEBF0FBECDBFDF91CF911F910F9108
:10461000FF90EF90BF90AF909F908F900895695C4E
:10462000DECFCF92DF92EF92FF920F931F93CF9343
:10463000DF932115310581F4DC01ED91FC910190AE
:10464000F081E02D642FDF91CF911F910F91FF90AA
:10465000EF90DF90CF9009942A30310501F52AE0E0
:1046600077FF1DC06A017B01EC016DE20E947F2291
:104670008C0144275527BA014C195D096E097F0941
:104680002AE0CE010E94C522800F911FDF91CF91B9
:104690001F910F91FF90EF90DF90CF900895DF91E1
:1046A000CF911F910F91FF90EF90DF90CF900C94DE
:1046B000C5229A01AB01770F660B770B0C9411237F
:1046C0002115310541F4DC01ED91FC910190F0815F
:1046D000E02D642F09940C94C5229A01462F50E0D6
:1046E00070E060E00C946023FC01808191810C9467
:1046F0009625CF93DF93EC0188819981009711F083
:104700000E949625198218821D821C821B821A82A1
:10471000DF91CF9108950F931F93CF93DF93EC0117
:104720008B016F5F7F4F888199810E941F260097C0
:1047300051F0998388831B830A8381E0DF91CF91B5
:104740001F910F91089580E0F9CFCF93DF93EC0193
:1047500088819981892B49F08A819B8186179707E7
:1047600020F081E0DF91CF910895CE010E948B234C
:104770008823C1F38C819D81892B99F7E881F98188
:104780001082EFCFEF92FF920F931F93CF93DF939F
:10479000EC017B018A01BA010E94A52381110BC0A3
:1047A000CE010E947923CE01DF91CF911F910F910D
:1047B000FF90EF9008951D830C83B7018881998144
:1047C0000E940C27F0CFFC0111821082138212820A
:1047D000158214826115710551F0FB0101900020D2
:1047E000E9F73197AF01461B570B0C94C22308958C
:1047F000FB0101900020E9F73197AF01461B570BF1
:104800000C94C223CF93DF93EC016115710531F055
:104810000E94F823CE01DF91CF9108950E94792361
:10482000F9CFFC01248135816217730748F4808138
:104830009181009729F0860F971FFC0180810895D0
:1048400080E00895AF92BF92CF92DF92EF92FF92F5
:104850000F931F93CF93DF935C016B017A01890162
:104860002417350720F48F2D7901042F182F67EFB7
:1048700073E0C5010E94E323D6011496CD91DC912B
:10488000EC16FD06C8F40C171D0708F4E801D60164
:10489000ED91FC911197EC0FFD1F108110826D912D
:1048A0007C916E0D7F1DC5010E940224F60180815E
:1048B0009181C80FD91F1883C501DF91CF911F9136
:1048C0000F91FF90EF90DF90CF90BF90AF90089541
:1048D000FC0180819181009711F00C94DC2660E04E
:1048E00070E0CB01089508950E94931F0E947324E5
:1048F0000E94890ACBE9D0E20E94F70E2097E1F3EB
:104900000E949B20F9CF0895991B79E004C0991F5C
:10491000961708F0961B881F7A95C9F78095089519
:1049200097FB072E16F4009407D077FD09D00E945C
:10493000D72407FC05D03EF4909581959F4F0895AC
:10494000709561957F4F0895A1E21A2EAA1BBB1B9B
:10495000FD010DC0AA1FBB1FEE1FFF1FA217B3074B
:10496000E407F50720F0A21BB30BE40BF50B661F61
:10497000771F881F991F1A9469F760957095809525
:1049800090959B01AC01BD01CF010895EE0FFF1F73
:104990000590F491E02D09940E94EB24A59F900DC1
:1049A000B49F900DA49F800D911D11240895AA1B02
:1049B000BB1B51E107C0AA1FBB1FA617B70710F00A
:1049C000A61BB70B881F991F5A95A9F7809590953C
:1049D000BC01CD010895A29FB001B39FC001A39F68
:1049E000700D811D1124911DB29F700D811D112428
:1049F000911D08950F931F93CF93DF9382309105FC
:104A000010F482E090E0E0911906F0911A0630E08F
:104A100020E0B0E0A0E0309799F42115310509F4C9
:104A20004AC0281B390B24303105D8F58A819B8177
:104A30006115710589F1FB0193838283FE0111C029
:104A4000408151810281138148175907E0F04817CE
:104A5000590799F4109761F012960C9312971396D8
:104A60001C933296CF01DF91CF911F910F91089542
:104A70000093190610931A06F4CF2115310551F051
:104A80004217530738F0A901DB019A01BD01DF018C
:104A9000F801C1CFEF01F9CF90931A068093190660
:104AA000CDCFFE01E20FF31F819391932250310984
:104AB00039832883D7CF2091170630911806232BEE
:104AC00041F42091620030916300309318062093E6
:104AD000170620916000309161002115310541F4E5
:104AE0002DB73EB74091640050916500241B350BF3
:104AF000E0911706F0911806E217F307A0F42E1BB9
:104B00003F0B2817390778F0AC014E5F5F4F241731
:104B1000350748F04E0F5F1F509318064093170655
:104B2000819391939FCFF0E0E0E09CCFCF93DF9310
:104B30000097E9F0FC01329713821282A0911906C6
:104B4000B0911A06ED0130E020E01097A1F4208129
:104B50003181820F931F2091170630911806281774
:104B6000390709F061C0F0931806E0931706DF914A
:104B7000CF910895EA01CE17DF07E8F54A815B81FE
:104B80009E0141155105B1F7E901FB83EA83499183
:104B90005991C40FD51FEC17FD0761F480819181F5
:104BA0000296840F951FE9019983888382819381FE
:104BB0009B838A83F0E0E0E012968D919C9113979D
:104BC0000097B9F52D913C911197CD010296820F76
:104BD000931F20911706309118062817390739F6C8
:104BE000309751F510921A0610921906B0931806D4
:104BF000A0931706BCCFD383C28340815181840F19
:104C0000951FC817D90761F44E5F5F4F888199815E
:104C1000480F591F518340838A819B8193838283EC
:104C20002115310509F0B0CFF0931A06E09319066B
:104C30009ECFFD01DC01C0CF13821282D7CFB0E03E
:104C4000A0E0E5E2F6E20C943F278C01009751F4D6
:104C5000CB010E94FA248C01C801CDB7DEB7E0E198
:104C60000C945B27FC01E60FF71F9C0122503109D1
:104C7000E217F30708F49DC0D901CD91DC9111979B
:104C8000C617D70798F0C530D10530F3CE01049789
:104C90008617970708F3C61BD70B2297C193D193AA
:104CA0006D937C93CF010E949625D6CF5B01AC1A01
:104CB000BD0A4C018C0E9D1EA0911906B0911A06DA
:104CC000512C412CF12CE12C109731F580911706D5
:104CD000909118068815990509F05CC0461657068C
:104CE00008F058C08091600090916100009741F4F5
:104CF0008DB79EB74091640050916500841B950B61
:104D0000E817F90708F055C0F0931806E093170666
:104D1000F90171836083A0CF8D919C9111971296B8
:104D20006C90129713967C901397A815B90559F5B6
:104D30006C0142E0C40ED11CCA14DB0420F1AC01AA
:104D40004A195B09DA011296159780F06282738224
:104D500051834083D9016D937C93E114F10471F088
:104D6000D7011396FC93EE93129776CF22968C0F71
:104D70009D1FF90191838083F301EFCFF0931A0611
:104D8000E093190669CF4816590608F42C017D01F5
:104D9000D3019ACFCB010E94FA247C01009749F0FD
:104DA000AE01B8010E940327C8010E949625870121
:104DB00053CF10E000E050CF1F93FC0199278827C4
:104DC000BC01E89411911032E9F3193010F01E3053
:104DD000C8F31B3251F01D3249F4689406C00E949A
:104DE0001327610F711D811D911D119110531A30F0
:104DF000B0F33EF490958095709561957F4F8F4FFD
:104E00009F4F1F910895FB01DC0102C001900D929C
:104E100041505040D8F70895FB01DC0101900D92FC
:104E20000020E1F70895592F482F372F262F660FBE
:104E3000771F881F991F660F771F881F991F620FA2
:104E4000731F841F951F660F771F881F991F089572
:104E5000E199FECF9FBB8EBBE09A99278DB3089551
:104E6000262FE199FECF9FBB8EBB2DBB0FB6F894CA
:104E7000E29AE19A0FBE019608952F923F924F92C7
:104E80005F926F927F928F929F92AF92BF92CF92DA
:104E9000DF92EF92FF920F931F93CF93DF93CDB7E3
:104EA000DEB7CA1BDB0B0FB6F894DEBF0FBECDBF5B
:104EB00009942A88398848885F846E847D848C842C
:104EC0009B84AA84B984C884DF80EE80FD800C8135
:104ED0001B81AA81B981CE0FD11D0FB6F894DEBF18
:104EE0000FBECDBFED01089512E0C0EED2E004C0C8
:104EF000FE010E94C6242196C13ED107C9F7F8944D
:104F0000FFCF00001B068000134453784E414D2E06
:104F1000444154004453784E79792E44534B00FF5A
:104F200030000D0A0A494F533A205265616420420D
:104F30007573204379636C652074696D656F757452
:104F4000000D0A0A494F533A20556E657870656323
:104F500074656420627573207374617465000D0A52
:104F6000494F533A205344206572726F72200044B7
:104F700049534B5F455252004E4F545F5245414496
:104F800059004E4F5F46494C45004E4F545F4F50BD
:104F9000454E4544004E4F545F454E41424C4544BA
:104FA000004E4F5F46494C4553595354454D0055AB
:104FB0004E4B4E4F574E00206F6E20004D4F554EBA
:104FC00054004F50454E00524541440057524954F9
:104FD00045005345454B00206F7065726174696FE1
:104FE0006E00202D2046696C653A20004469736B81
:104FF00020536574200031353A33323A3036004E52
:105000006F762032342032303232002F000A494F7E
:10501000533A20525443206D616E75616C20736564
:105020007474696E673A000A507265737320542F66
:105030005520746F20696E6372656D656E74202BE8
:1050400031302F2B31206F7220435220746F20613A
:1050500063636570740059656172202D3E20004DB8
:105060006F6E7468202D3E200020202020202020FC
:105070002020202020200020446179202D3E200087
:10508000486F757273202D3E20004D696E757465F2
:1050900073202D3E20005365636F6E6473202D3E98
:1050A0002000202E2E2E646F6E65202020202020D0
:1050B00000494F533A2052544320646174652F7461
:1050C000696D652075706461746564202800494FBE
:1050D000533A20466F756E64205254432044533334
:1050E000323331204D6F64756C65202800494F5371
:1050F0003A20525443204453333233312074656D87
:1051000070657261747572652073656E736F723A43
:1051100020004300494F533A2052544320636C6FA0
:10512000636B206661696C75726521000A446F20AB
:10513000796F752077616E742073657420525443C3
:1051400020617420494F5320636F6D70696C652036
:1051500074696D65202800293F205B592F4E5D2022
:105160003E00494F533A20525443207365742061E6
:105170007420636F6D70696C652074696D65202D96
:10518000204E6F773A2000340038004D487A004FA7
:105190004E004F4646000D0A20363A204368616EA5
:1051A000676520004D487A2900456E746572207944
:1051B0006F75722063686F696365203E0020204F21
:1051C0006B000D202D3E00494C4F414438302E429B
:1051D000494E004155544F424F4F542E42494E00C4
:1051E00041553830424F4F542E42494E0043504DA6
:1051F00032322E42494E0043504D38362E42494EEF
:10520000004D53444F532E42494E00494F533A20CC
:105210004C6F6164696E6720626F6F742070726F8B
:105220006772616D202800292E2E2E00494F533AB7
:10523000204C6F6164696E6720626F6F74207072BA
:105240006F6772616D2E2E2E0020446F6E650053C5
:10525000574954434838302E42494E00494F533A3B
:1052600020563230204350552069732072756E6E7F
:10527000696E672066726F6D206E6F770D0A000D84
:105280000A494F533A204350552048414C5420641A
:10529000657465637465640D0A001F1C1F1E1F1E64
:1052A0001F1F1E1F1E1F00000000C71BF61B641BD4
:1052B000901B671B6E1B811B00000000EA20172259
:0A52C0008C20CA205E2078206A20AE
:107E000001C0B2C011248FE598E09EBF8DBF84B73A
:107E1000882361F0982F9A70923041F081FF02C060
:107E200097EF94BF282E80E0BAD0EAC085E08EBDDF
:107E300082E08BB988E18AB986E880BD80E189B9A2
:107E40008EE0ADD0B89A84E020E33CEF44E051E00E
:107E50003DBD2CBD48BF08B602FEFDCF98B39527A7
:107E600098BBA8955F9902C0815091F791D0813459
:107E700079F48ED0182F97D0123811F480E004C016
:107E800088E0113809F083E07FD080E17DD0EECF2B
:107E9000823419F484E18FD0F8CF853411F485E071
:107EA000FACF853541F474D0C82F72D0D82FCC0FBB
:107EB000DD1F79D0EACF863519F484E07CD0DECF9F
:107EC000843699F565D064D0182F62D0D82E012F52
:107ED00090E6E92EF12C57018FEFA81AB80A58D076
:107EE000F701808301507501B1F75DD0F5E4DF1231
:107EF00001C0FFCF50E040E063E0CE0135D07E010D
:107F000080E6C82ED12CF601419151916F0161E0BC
:107F1000C7012AD0F2E0EF0EF11C1250A1F750E099
:107F200040E065E0CE0120D0B0CF843771F430D08E
:107F30002FD0F82E2DD037D08E01F80185918F01EA
:107F400023D0FA94F110F9CFA0CF853739F42BD094
:107F50008EE11AD085E918D082E096CF813509F0FC
:107F6000A8CF88E01CD0A5CFFC010A0167BFE89527
:107F7000112407B600FCFDCF667029F0452B19F4DB
:107F800081E187BFE89508955D9BFECF8CB9089588
:107F90005F9BFECF5C9901C0A8958CB1089598E1D4
:107FA00091BD81BD0895F4DF803219F088E0F7DFDC
:107FB000FFCF84E1E9CFCF93C82FEADFC150E9F7C3
:047FC000CF91F1CF9D
:027FFE00000879
:00000001FF
